:020000040800F2
:10000000E057002045010008952B00081D1B000843
:10001000912B0008D9070008D33A0008000000001F
:100020000000000000000000000000005132000845
:10003000790B000800000000A92C000865330008B7
:100040005F0100085F0100085F0100085F01000810
:100050005F0100085F010008011700085F01000848
:100060005F0100085F0100085F0100085F010008F0
:100070005F0100085F0100085F0100085F010008E0
:100080005F0100085F0100085F0100085F010008D0
:100090005F0100085F0100085F0100085F010008C0
:1000A0005F0100085F0100085F0100085F010008B0
:1000B0005F0100085F0100085F0100085F010008A0
:1000C0005F0100085F0100085F0100085F01000890
:1000D0005F010008493800085F0100085F0100085F
:1000E0005F0100085F0100085F0100085F01000870
:1000F0005F0100085F0100085F0100085F01000860
:100100005F0100085F0100085F0100085F0100084F
:100110005F0100085F0100085F0100085F0100083F
:100120005F0100085F0100085F0100085F0100082F
:10013000DFF80CD000F0F4FA00480047B550000892
:10014000E05700200648804706480047FEE7FEE7E4
:10015000FEE7FEE7FEE7FEE7FEE7FEE7FEE7FEE777
:100160006933000831010008D2B201E000F8012B28
:10017000491EFBD270470022F6E710B513460A4627
:1001800004461946FFF7F0FF204610BD421C10F848
:10019000011B0029FBD1801A7047F0B480EA0102EC
:1001A000D40F4200B2EB410F02D20246084611467C
:1001B0004A0042D0C30DDDB2C1F3C752AD1A202DA3
:1001C00035DAC1F3160141F4000204B15242C5F11F
:1001D000200602FA06F12A411044B3EBD05F23D087
:1001E000C4B1012DA0EBC35009DCF0BC4FF00042BC
:1001F00002EAC352DBB200F5000000F006BA40008C
:1002000000F1807000EBC350A0F1807040EAD17023
:10021000490009E0490841EAC071A0EBC35000F56C
:100220000000400800EBC350F0BC00F0E5B96142AB
:10023000012202EB4101001BF6E7F0BC704781F0A0
:100240000041AAE780F00040A7E780EA010210B56C
:1002500002F00043400022D04A001FD0010E01EB03
:100260001261C0F35600C2F3560240F4000042F49B
:100270000002A0FB022000047F39140400D0401CBF
:1002800050EA124001D44000491EC2B20C0604EBF1
:10029000D010401C4008802A02D003E0002010BD8E
:1002A00020F00100002900DA0020184310BD30B40E
:1002B00080EA010202F0004530F0004221F00040E7
:1002C00013D090B1C30DD40DC2F31601C0F31600C4
:1002D000E41A41F4000140F400027D34914201D35C
:1002E000641C00E04900002C02DA30BC002070479A
:1002F0004FF400000023914201D3891A03434008C0
:100300004FEA4101F7D151B1914202D14FF0004182
:1003100005E002D24FF0010101E06FF0010103EBB3
:10032000C450284430BC00F067B92DE9FE4F81EA83
:10033000030404F0004421F0004100944FF0000B4E
:1003400023F0004350EA01045ED052EA03045BD07C
:10035000C3F30A54C1F30A552C44A4F2F3340194B4
:10036000A0FB0254C1F3130141F48011C3F3130342
:1003700043F4801301FB024400FB034E840A970AF6
:1003800044EA815447EA8357A4FB076802958D0A23
:1003900005FB07854FEA932C04FB0C542705029DAF
:1003A0004FEA065847EA1637B5EB08056EEB070C1F
:1003B000870E920E47EA811742EA8312A7FB0201D9
:1003C000B6EB0B0164EB00042B0D43EA0C335E1813
:1003D00044EB1C50DA465146E7FB0201C5F3130417
:1003E0004FEA0B3343EA14534FEA0432019C43EAC9
:1003F0000603A4F10C040294009CCDE900B400F0C3
:1004000041F903B0BDE8F08F00200146F9E72DE97E
:10041000F04D81EA030404F0004B21F0004514463E
:100420004FF0000A23F0004150EA050220D054EAC0
:1004300001021DD0C5F30A570246C5F31303C1F3E9
:100440001300C1F30A5640F4801543F48013A7EB60
:100450000608101BD64608F2FD3873EB050002D3E0
:1004600008F1010801E092185B41B8F1000F03DACE
:1004700000200146BDE8F08D00204FF480110646B3
:1004800084460EE0171B73EB050705D3121B63EBC5
:10049000050306434CEA010C49084FEA3000921864
:1004A0005B4150EA0107EDD152EA030012D082EA23
:1004B000040083EA0501084305D0101BAB4106D2B6
:1004C0000122002306E000224FF0004302E06FF01B
:1004D000010253101AEB06004CEB085110EB0A0016
:1004E00041EB0B01BDE8F04D00F0BDB8C10F80EA53
:1004F000E0700844CA079623002100F086B800F097
:10050000004220F00040C10DC0F3160040F400008E
:100510007F2901DA00207047962903DCC1F196019A
:10052000C84001E096398840002AF4D04042704724
:1005300020F00040C10DC0F3160040F400007F29F8
:1005400001DA00207047962903DCC1F19601C8400A
:10055000704796398840704700F0004230F0004004
:100560000AD0C10D01F56071C0F3160042EA0151D5
:10057000C20840071143704700200146704701F050
:10058000004330B421F0004150EA010206D00A0DC8
:10059000A2F56072C1F31301002A02DC30BC002016
:1005A0007047440F44EAC104C100E01830BC00EBBE
:1005B000C25000F021B80000002801DBC0F100406B
:1005C000002901DBC1F100418142704730B50B4683
:1005D000014600202022012409E021FA02F59D4273
:1005E00005D303FA02F5491B04FA02F52844151E47
:1005F000A2F10102F1DC30BD0029A8BF7047401C08
:10060000490008BF20F00100704710B4B0FA80FC28
:1006100000FA0CF050EA010404BF10BC704749B165
:10062000CCF1200421FA04F411FA0CF118BF0121D5
:1006300021430843A3EB0C01CB1D4FEA00614FEAB5
:10064000102042BF002010BC704700EBC350104484
:100650000029A4BF10BC7047401C490008BF20F00F
:10066000010010BC704710B5141E73F1000408DAC5
:10067000401C41F1000192185B411A4301D120F066
:10068000010010BD2DE9F04D92469B4611B1B1FA23
:1006900081F202E0B0FA80F22032904600F052F887
:1006A00004460F4640EA0A0041EA0B0153465A4607
:1006B000084313D0114653EA010019D0C8F1400293
:1006C000504600F04EF805460E4650465946424602
:1006D00000F038F8084305D0012004E020463946F0
:1006E000BDE8F08D0020054346EAE0762C43374311
:1006F0000A986305E40AA0EB08000022FD0A44EA18
:1007000047540A3002D500200146E9E701051019D7
:100710006941DDE9084500196941BDE8F04DA2E7EE
:10072000064C074D06E0E06840F0010394E807003E
:1007300098471034AC42F6D3FFF7FEFC089400084B
:1007400028940008202A04DB203A00FA02F1002055
:1007500070479140C2F1200320FA03F319439040FF
:100760007047202A04DB203A21FA02F0002170476A
:1007700021FA02F3D040C2F1200291400843194609
:10078000704770B58C1810F8015B15F0070301D1A4
:1007900010F8013B2A1106D110F8012B03E010F8E4
:1007A000016B01F8016B5B1EF9D12B0705D4002307
:1007B000521E0DD401F8013BFAE710F8013BCB1AA9
:1007C000921C03E013F8015B01F8015B521EF9D59E
:1007D000A142D8D3002070BD00BFFEE738B5054662
:1007E0000C460020009002F0B1FB01229102684605
:1007F00002F0F2FA9DF80000A52801D0012000E0E7
:100800000020012C01D1012100E00021084308B3A0
:100810009DF80000A52806D1012C04D1C022E102D8
:10082000104802F0D9FA00BF284603F0C3FC0028A4
:10083000FAD0002002F038FCA5200090012291029D
:10084000684602F0F1FAC0224FF40061054802F058
:10085000EBFA05E0C0224FF40061024802F0BCFA56
:1008600038BD00004000002010B504460449087857
:1008700004F0B0FD02480168032004F03FFD10BD04
:100880003801002070B504462546287A04490871CD
:10089000098888B24FF6FF7102F026F970BD00009A
:1008A0002C01002070B5044625460849A868086058
:1008B000098888B24FF6FF7102F016F903480079F3
:1008C000082802D100200149087170BD2C010020C8
:1008D00070B504462546A868022813D12020164981
:1008E0000860164802F00AF900214FF4784002F03F
:1008F000FBF813A29021602001F006FA01211320D9
:1009000004F090FCA8680A2814D120200A49091F85
:1009100008600A4802F0F2F800214FF4784002F033
:10092000E3F80AA29021602001F0EEF900211320E3
:1009300004F078FC70BD0000140C01401001002090
:100940004C6967687420204F6E0000004C6967682E
:1009500074204F666600000070B504462546A868FE
:10096000012804D112480068401C11490860A86899
:10097000092808D10E480068002804DD0C480068EA
:10098000401E0B4908600B4802F0B8F800214FF4F4
:10099000784002F0A9F8064807A102680B4803F066
:1009A000C5FE0A4A6021084601F0AEF970BD00009C
:1009B0003801002010010020CAD6B6AFCDB6CEB99E
:1009C000C1BFA3BA202564200000000064010020FC
:1009D00010B500241548406820F470401349486061
:1009E0000846406840F40040486004E0601CC4B21F
:1009F000012004F09FF90E48006808B1642CF5DB73
:100A0000642C01DB012010BD002404E0601CC4B292
:100A1000012004F08FF90648006808B9642CF5DB62
:100A2000642C01DB0120EEE70020ECE70010014020
:100A30002C01224208B50121102002F047F94FF4A1
:100A40000060ADF8000010208DF8030003208DF841
:100A500002006946064800F09FFF4FF40061044819
:100A600001F030F800F068F8FFF7B2FF08BD0000B1
:100A70000010014010B5002404E0601CC4B2012045
:100A800004F058F90D48006808B1642CF5DB002427
:100A900004E0601CC4B2012004F04CF9074800686F
:100AA00008B9642CF5DB282004F044F903480068F9
:100AB00008B1012010BD0020FCE700002C012242FB
:100AC00070B50024002506E06006040EFFF7D2FF93
:100AD0000443681CC5B2082DF6DB204670BD7CB50A
:100AE00005460E4600F028F8FFF772FFF8B900241B
:100AF00005E0FFF7E5FF0DF80400601CC4B2052C0B
:100B0000F7DB9DF800009DF8011008449DF80210E5
:100B100008449DF8031008449DF80410884208D149
:100B20009DF8000030709DF80200287001E001205F
:100B30007CBD0020FCE7000010B50C48406820F4A4
:100B400070400A4948600846406840F44050486098
:100B5000002007490860142004F0C6F80120054968
:100B6000C1F8AC011E2004F0E5F810BD00100140F2
:100B7000AC01224200002242704701B502E0009819
:100B8000401E009000980028F9D108BDF8B5054630
:100B90002C46207BA0BB4FF6FF714CF2186001F091
:100BA000A3FF01200090E6886788F61BB3B2A688F1
:100BB0002788F61BB2B26188384601F0B7FA4CF2CA
:100BC00018614FF4784001F08FFF324801F096FF32
:100BD000E2886388D21AA2F1100606EBD67203EB04
:100BE000620291B2A2882388D21AA2F1200707EBF1
:100BF000D77203EB620290B227A201F085F833E0CE
:100C0000FFE74FF6FF71084601F06EFF01200090EC
:100C1000E6886788F61BB3B2A6882788F61BB2B2AF
:100C20006188384601F082FA4FF6FF714FF4784040
:100C300001F05AFF174801F061FFE2886388D21A79
:100C4000A2F1100606EBD67203EB620291B2A28803
:100C50002388D21AA2F1200707EBD77203EB6202B6
:100C600090B20DA201F050F84FF6FF714FF40470EE
:100C700001F03AFF00200090E6886788F61BB3B2C7
:100C8000A6882788F61BB2B26188384601F04EFA72
:100C9000F8BD000010010020CEB9CAB3000000006A
:100CA000F8B505462C46207B00286FD14FF6FF7122
:100CB0004CF2186001F018FF01200090E688678868
:100CC000F61BB3B2A6882788F61BB2B261883846F5
:100CD00001F02CFA4CF218614FF4784001F004FF57
:100CE000FE4801F00BFFA0680B281ED2DFE800F0E1
:100CF000DF061E364F677F97DFAFC700E288638845
:100D0000D21AA2F1100606EBD67203EB620291B280
:100D1000A2882388D21AA2F1200707EBD77203EB2F
:100D2000620290B2EEA200F0EFFFC0E0E2886388BA
:100D3000D21AA2F1100606EBD67203EB620291B250
:100D4000A2882388D21AA2F1200707EBD77203EBFF
:100D5000620290B2E3A200F0D7FFA8E0E2886388C5
:100D6000D21AA2F1100606EBD67203EB620291B220
:100D7000A2882388D21AA2F1200707EBD77203EBCF
:100D8000620290B2D9A200F0BFFF90E090E0E2884A
:100D90006388D21AA2F1100606EBD67203EB620248
:100DA00091B2A2882388D21AA2F1200707EBD7724A
:100DB00003EB620290B2CEA200F0A6FF77E0E288D9
:100DC0006388D21AA2F1100606EBD67203EB620218
:100DD00091B2A2882388D21AA2F1200707EBD7721A
:100DE00003EB620290B2C3A200F08EFF5FE0E288E4
:100DF0006388D21AA2F1100606EBD67203EB6202E8
:100E000091B2A2882388D21AA2F1200707EBD772E9
:100E100003EB620290B2B8A200F076FF47E0E288EE
:100E20006388D21AA2F1100606EBD67203EB6202B7
:100E300091B2A2882388D21AA2F1200707EBD772B9
:100E400003EB620290B2ADA200F05EFF2FE0E288F9
:100E50006388D21AA2F1100606EBD67203EB620287
:100E600091B2A2882388D21AA2F1200707EBD77289
:100E700003EB620290B2A2A200F046FF17E0E28804
:100E80006388D21AA2F1100606EBD67203EB620257
:100E900091B2A2882388D21AA2F1200707EBD77259
:100EA00003EB620290B297A200F02EFF00BFFFE0BA
:100EB0004FF6FF71084601F017FE01200090E6880A
:100EC0006788F61BB3B2A6882788F61BB2B2618882
:100ED000384601F02BF94FF6FF714FF4784001F0DE
:100EE00003FE7E4801F00AFEA0680B281ED2DFE850
:100EF00000F0DE061E364E667E96DEAEC600E28846
:100F00006388D21AA2F1100606EBD67203EB6202D6
:100F100091B2A2882388D21AA2F1200707EBD772D8
:100F200003EB620290B26EA200F0EEFEBFE0E28838
:100F30006388D21AA2F1100606EBD67203EB6202A6
:100F400091B2A2882388D21AA2F1200707EBD772A8
:100F500003EB620290B26BA200F0D6FEA7E0E2883B
:100F60006388D21AA2F1100606EBD67203EB620276
:100F700091B2A2882388D21AA2F1200707EBD77278
:100F800003EB620290B259A200F0BEFE8FE0E2884D
:100F90006388D21AA2F1100606EBD67203EB620246
:100FA00091B2A2882388D21AA2F1200707EBD77248
:100FB00003EB620290B24EA200F0A6FE77E0E28858
:100FC0006388D21AA2F1100606EBD67203EB620216
:100FD00091B2A2882388D21AA2F1200707EBD77218
:100FE00003EB620290B243A200F08EFE5FE0E28863
:100FF0006388D21AA2F1100606EBD67203EB6202E6
:1010000091B2A2882388D21AA2F1200707EBD772E7
:1010100003EB620290B238A200F076FE47E0E2886D
:101020006388D21AA2F1100606EBD67203EB6202B5
:1010300091B2A2882388D21AA2F1200707EBD772B7
:1010400003EB620290B22DA200F05EFE2FE0E28878
:101050006388D21AA2F1100606EBD67203EB620285
:1010600091B2A2882388D21AA2F1200707EBD77287
:1010700003EB620290B222A200F046FE17E0E28883
:101080006388D21AA2F1100707EBD77203EB620252
:1010900091B2A2882388D21AA2F1200606EBD6725A
:1010A00003EB620290B217A200F02EFE00BF00BF59
:1010B0004FF6FF714FF4047001F016FD0020009010
:1010C000E6886788F61BB3B2A6882788F61BB2B2FB
:1010D0006188384601F02AF8F8BD000010010020B0
:1010E000BCD30000BFAAB5C600000000330000005A
:1010F000340000003500000036000000370000001A
:10110000BCF50000B9D8B5C6000000002DE9F843D1
:1011100006463446207B80BB4FF6FF714CF21860C8
:1011200001F0E2FC01200090E788B4F802C0A7EBD0
:101130000C07BBB2A788B4F800C0A7EB0C07BAB283
:101140006188604600F0F2FF4CF218614FF40470C1
:1011500001F0CAFC00200090E788B4F802C0A7EBB9
:101160000C07BBB2A788B4F800C0A7EB0C07BAB253
:101170006188604600F0DAFF2FE0FFE74FF6FF716D
:10118000084601F0B1FC01200090E788B4F802C0E5
:10119000A7EB0C07BBB2A788B4F800C0A7EB0C07FD
:1011A000BAB26188604600F0C1FF4FF6FF714FF49C
:1011B000047001F099FC00200090E788B4F802C0A8
:1011C000A7EB0C07BBB2A788B4F800C0A7EB0C07CD
:1011D000BAB26188604600F0A9FF4FF6FF710020A7
:1011E00001F082FCA06809282FD2DFE800F0052F6B
:1011F000567DA4CBF5F3F2004FF6FF71002001F00D
:1012000073FCB4F806C0B4F80290ACEB090707EB26
:10121000D77C09EB6C0C1FFA8CF3B4F806C0ACEB6E
:10122000090808EBD87C09EB6C0C1FFA8CF1B4F8B8
:1012300004C0ACF1140C1FFA8CF2B4F800C00CF12D
:10124000140C1FFA8CF000F021FF77E101200090D0
:10125000B4F806C0B4F80290ACEB090808EBD87CEF
:1012600009EB6C0C1FFA8CF3B4F806C0ACEB090761
:1012700007EBD77C09EB6C0C1FFA8CF1B4F804C0B7
:10128000ACF1140C1FFA8CF2B4F800C00CF1140C81
:101290001FFA8CF001F06AFB50E102200090B4F8D4
:1012A00006C0B4F80290ACEB090707EBD77C09EB5A
:1012B0006C0C1FFA8CF3B4F806C0ACEB090808EB11
:1012C000D87C09EB6C0C1FFA8CF1B4F804C0ACF1BB
:1012D000140C1FFA8CF2B4F800C00CF1140C1FFAB5
:1012E0008CF001F043FB29E103200090B4F806C024
:1012F000B4F80290ACEB090707EBD77C09EB6C0C58
:101300001FFA8CF3B4F806C0ACEB090808EBD87CE4
:1013100009EB6C0C1FFA8CF1B4F804C0ACF1140C9E
:101320001FFA8CF2B4F800C00CF1140C1FFA8CF008
:1013300001F01CFB02E104200090B4F806C0B4F8F0
:101340000290ACEB090808EBD87C09EB6C0C1FFA97
:101350008CF3B4F806C0ACEB090707EBD77C09EBBC
:101360006C0C1FFA8CF1B4F804C0ACF1140C1FFA29
:101370008CF2B4F800C00CF1140C1FFA8CF001F0E0
:10138000F5FADBE008200090B4F806C0B4F802904B
:10139000ACEB090707EBD77C09EB6C0C1FFA8CF35D
:1013A000B4F806C0ACEB090808EBD87C09EB6C0C70
:1013B0001FFA8CF1B4F804C0ACF1140C1FFA8CF2D3
:1013C000B4F800C00CF1140C1FFA8CF001F0CEFA46
:1013D000B4E072E027E0FFE70A200090B4F806C00E
:1013E000B4F80290ACEB090808EBD87C09EB6C0C64
:1013F0001FFA8CF3B4F806C0ACEB090707EBD77CF7
:1014000009EB6C0C1FFA8CF1B4F804C0ACF1140CAD
:101410001FFA8CF2B4F800C00CF1140C1FFA8CF017
:1014200001F0A4FA8AE04FF6FF71002001F05CFBA6
:10143000B4F806C0B4F80290ACEB090707EBD77C10
:1014400009EB6C0C1FFA8CF3B4F806C0ACEB09087E
:1014500008EBD87C09EB6C0C1FFA8CF1B4F804C0D3
:10146000ACF1050C1FFA8CF2B4F800C00CF1050CBD
:101470001FFA8CF000F00AFE002514E0E288638871
:10148000D71A07EBD77203EB620291B22288521D82
:1014900005EB850302EB430290B20123032200F027
:1014A00043FD681C85B2A0882188401A0A380A21A9
:1014B00090FBF1F0A842E1DC40E000214FF6FF7024
:1014C00001F012FB01200090E2886388D21AA2F199
:1014D000280707EBD77203EB620291B2A288238838
:1014E000D21AA2F1180808EBD87203EB620290B28C
:1014F00018231A4600F01AFE4CF218614FF4784097
:1015000001F0F2FA0F4801F0F9FAE2886388D21A82
:10151000A2F1280707EBD77203EB6202183291B2EF
:10152000A2882388D21AA2F1200808EBD87203EB14
:10153000620290B204A200F0E7FB00BF00BFBDE86A
:10154000F883000010010020CFF0C6A400000000C6
:101550002DE9F84305460F4614461E46DDF8208067
:10156000512C6EDD512DFCDD98F80400092815D2B0
:10157000DFE800F0051525354555687A9700002D00
:1015800001DB002F04DAB1B2A0B201F0F5F805E0FA
:10159000B3B2A2B2B9B2A8B200F078FDA9E0601E61
:1015A000512802DB681E512800DAA2E00120B3B204
:1015B000A2B2B9B20090A8B201F0D8F999E0A01E89
:1015C000512802DBA81E512800DA92E00220B3B2B3
:1015D000A2B2B9B20090A8B201F0C8F989E0E01E49
:1015E000512802DBE81E512800DA82E00320B3B262
:1015F000A2B2B9B20090A8B201F0B8F979E0201F08
:10160000512802DB281F512800DA72E00420B3B20F
:10161000A2B2B9B20090A8B201F0A8F969E0A4F1B1
:101620000800512803DBA5F10800512800DA60E02A
:101630000820B3B2A2B2B9B20090A8B201F096F9F4
:1016400057E057E0A4F10A00512803DBA5F10A0096
:10165000512800DA4DE00A20B3B2A2B2B9B200902C
:10166000A8B201F083F944E0E01E512802DBE81E35
:10167000512800DA3DE0002D01DB002F04DAB1B281
:10168000A0B201F079F80BE0B3B2A2B2B9B2A8B23D
:1016900000F0FCFCB1B2A0B20123032200F044FC34
:1016A00027E0A4F11400512810DB283012490988E2
:1016B00088420BDC2838002808D406F114000F49B2
:1016C0000988884202DC2838002800D511E04FF64E
:1016D000FF71084601F008FA0120A6F1140291B248
:1016E000A4F11402009090B228231A4600F01EFDC7
:1016F00000BF00BFBDE8F8833000002032000020AA
:1017000010B503F047FE002003F050FE012000F06A
:101710002FF810BD0EB501F017F90121084601F0B0
:10172000D5FA0021084600F017F9012001900020A9
:101730008DF8080008208DF8090001208DF80A00B6
:1017400001A800F01BF84FF4E06001F06FFA0620EA
:101750008DF8000000208DF8010003208DF80200B4
:1017600001208DF80300684601F028FA0EBD000044
:10177000014908607047000014040140002123491A
:101780008279002A3AD00A46126803689A430B46C7
:101790001A600A1D126803689A430B1D1A600279C9
:1017A00011440A6803681A430A60184A083212682A
:1017B00003689A43154B08331A601A1D12680368B0
:1017C0009A43124B0C331A604279102A0ED11A1F19
:1017D000126803681A430D4B08331A601A1D126809
:1017E00003681A43094B0C331A600DE0074942792C
:1017F00011440A6803681A430A6005E0027911443B
:101800000A6803689A430A607047000000040140B8
:1018100051B18200A2F1C042126842F0010382007D
:10182000A2F1C042136009E08200A2F1C042126836
:10183000034B1A408300A3F1C0431A6070470000B5
:10184000FEFF0F00D0E901121143C2681143026983
:1018500011434269114382691143C2691143026A0B
:101860001143426A1143826A1143C26A1143026BF7
:10187000114302689200A2F1C042116081680829F8
:101880000BD101688900A1F1C041096841F0400213
:1018900001688900A1F1C0410A60416B0968426B8F
:1018A000526841EA0211426B926841EA0221426B9E
:1018B000928941EA0241426B128A41EA0251426B2B
:1018C000127D41EA0261426B926911430268521C27
:1018D0009200A2F1C0421160C16AB1F5804F1BD1E4
:1018E000816B0968826B526841EA0211826B9268CF
:1018F00041EA0221826B128A41EA0251826B127D17
:1019000041EA0261826B9269114302689200A2F17E
:10191000C042C2F8041107E06FF07042016889000C
:10192000A1F1C041C1F804217047000008B50121B0
:10193000042001F0CBF90C20ADF8000010208DF848
:10194000030003208DF802006946024800F024F8E5
:1019500008BD00000008014030B500228B071C0FB5
:101960000F2303FA04F20B4B8C1053F824309343EB
:10197000084C8D1044F8253023468C1053F8243041
:101980008C07240F00FA04F42343024C8D1044F812
:10199000253030BD080001402DE9F0410246002508
:1019A0000026002000230024002791F803C00CF03B
:1019B0000F0591F803C00CF0100CBCF1000F03D020
:1019C00091F802C04CEA050591F800C0BCF1000F87
:1019D00031D0146800202BE04FF0010C0CFA00F31A
:1019E000B1F800C00CEA03069E4220D183004FF0FC
:1019F0000F0C0CFA03F7BC4305FA03FC4CEA040491
:101A000091F803C0BCF1280F06D14FF0010C0CFA7D
:101A100000FCC2F814C00AE091F803C0BCF1480F02
:101A200005D14FF0010C0CFA00FCC2F810C0401CAC
:101A30000828D1D31460B1F800C0BCF1FF0F34DD29
:101A4000546800202EE000F1080C4FF0010808FA5D
:101A50000CF3B1F800C00CEA03069E4221D18300CA
:101A60004FF00F0C0CFA03F7BC4305FA03FC4CEAE9
:101A7000040491F803C0BCF1280F05D100F1080C53
:101A800008FA0CF8C2F8148091F803C0BCF1480FB2
:101A900007D100F1080C4FF0010808FA0CF8C2F861
:101AA0001080401C0828CED35460BDE8F081024667
:101AB000002093680B400BB1012000E0002070472C
:101AC00041617047016170472DE9F04180460C4645
:101AD0001048007820B901F039FA01200D4908704A
:101AE0002512E6B2A5F1A101C1EB011202EB4111F1
:101AF00006EB4101A1390802C11700EB5171CF106B
:101B0000054839182022404601F066F90020BDE85A
:101B1000F0810000280100200030180000BFFEE71F
:101B200010B504462CB14FF480510548FFF7C8FFAB
:101B300004E04FF480510248FFF7C4FF10BD0000DD
:101B4000001401402DE9F04106460F4614461D469B
:101B50002B4622463946304600F0A8FC04FB05F02F
:101B60000249098800F055FBBDE8F0813E000020E5
:101B700001B502E00098401E009000980028F9D1BD
:101B800008BD00002DE9F04389B08046894617461C
:101B900010231A464946404600F088FC2C2000F0ED
:101BA00007FE394601A8FFF78FFF002422E001A8B5
:101BB00010F814604FF6FF7000EA0626012000EBD3
:101BC000440001A9085C064300250FE04FF40040E3
:101BD0002841304020B10A48008800F0EDFD03E0C4
:101BE0000848008800F0E8FD681CC5B2102DEDDB48
:101BF000601CC4B2102CDADB09B0BDE8F083000031
:101C00003C0000203E0000202DE9F05F8046894620
:101C10001646A6F120001FFA80FA1E490968898835
:101C20001C4A1268D28801FB02F0C11700EB517107
:101C3000C1F3C7071748006800680AFB070B15487F
:101C40000068C3881348006882884946404600F00F
:101C50002DFC2C2000F0ACFD002416E0002510E047
:101C60001BF8040080212941084020B10A4800885F
:101C700000F0A2FD03E00948008800F09DFD681C0B
:101C8000C5B2082DECDB601CC4B2BC42E6DBBDE88B
:101C9000F09F0000380000203C0000203E000020A3
:101CA00070B504460D46002624E030461349096805
:101CB0008988084412490988884205DD00260F48B2
:101CC0000068C088204484B220460C490968C9884D
:101CD00008440C490988884201DD002600242A783E
:101CE00021463046FFF790FF6D1C0448006880884D
:101CF000304486B228780028D7D170BD3800002043
:101D000030000020320000202DE9F04105460E464B
:101D1000144648E020787E2825DC284624490968B6
:101D20008988084423490988884205DD0025204820
:101D30000068C088304486B230461D490968C988A9
:101D400008441D490988884201DD002500262278C3
:101D500031462846FFF758FF154800688088284418
:101D600085B2641C1FE02846103012490988884259
:101D700003DD002506F1100086B2304610300E4912
:101D80000988884201DD002500262788380200EBFB
:101D9000272087B23A4631462846FFF7F3FE05F181
:101DA000100085B2A41C20780028B3D1BDE8F081D2
:101DB0003800002030000020320000202DE9F04FD4
:101DC0008FB00646884614469946DDE9185B2746DB
:101DD00069E03046384437490988884204DD0026E6
:101DE00008EB09001FFA80F8404648443249098848
:101DF000884201DD0026B0462878802825DD274668
:101E0000B5F800A04FEA0A2000EB2A201FFA80FA5A
:101E1000514605A8FFF758FE012105AA0E984B462A
:101E2000CDE9002002913A461021084600F0CAFC94
:101E300022484B463A464146CDE9000B304600F079
:101E400041F8F01986B2AD1C2DE0204604EBD071AC
:101E5000C1F34F0728782038C0B20D9000231848EE
:101E6000C288DDE90D015043154A92885043C217DC
:101E7000049000EB5270124A126802EBE0008DE809
:101E80000B004B463A461821102000F09BFC0B48F3
:101E90004B463A464146CDE9000B304600F012F879
:101EA000F01986B26D1C2878002892D10FB0BDE8D9
:101EB000F08F00003000002032000020F0010020F0
:101EC000180100202DE9F05F81468A4614461D4620
:101ED000DDE90A6B0027B8462B46224651464846A4
:101EE00000F0E4FA2C2000F063FC00BF14E04FF097
:101EF00000080EE016F8011B594504D10848008877
:101F000000F05AFC03E00748008800F055FC08F197
:101F10000108A045EED37F1CAF42E8D3BDE8F09F97
:101F20003E0000203C0000202DE9F05F05460E46F3
:101F300091469B4600240FFA89F70320A0EB490045
:101F40000FFA80FA87E0BBF1000F40D0A0463BE0DB
:101F500006EB080291B22A1990B200F00DFC06EBD4
:101F6000080291B22A1B90B200F006FC321991B21D
:101F7000A5EB080290B200F0FFFB321B91B2A5EB7B
:101F8000080290B200F0F8FBA6EB080291B22A1BFF
:101F900090B200F0F1FBA6EB080291B22A1990B2C0
:101FA00000F0EAFB321B91B205EB080290B200F0A0
:101FB000E3FB321991B205EB080290B200F0DCFBB2
:101FC00008F101000FFA80F8B845C1DD2FE0F219E1
:101FD00091B22A1990B200F0CFFBF21991B22A1BEC
:101FE00090B200F0C9FB321991B2EA1B90B200F036
:101FF000C3FB321B91B2EA1B90B200F0BDFBF21B97
:1020000091B22A1B90B200F0B7FBF21B91B22A19D1
:1020100090B200F0B1FB321B91B2EA1990B200F01D
:10202000ABFB321991B2EA1990B200F0A5FB601C2B
:1020300004B2BAF1000F05DAA000801D50440FFA77
:1020400080FA07E0E01B80000A3050440FFA80FA63
:10205000781E07B200BFBC427FF775AFBDE8F09FA6
:1020600070B504460D4604F10A018AB2143988B2EB
:102070002B46294600F00AF805F10A0083B214380D
:1020800081B22246204600F001F870BD2DE9FF4FD5
:1020900083B081464FF0000AD3460598A0EB0905AE
:1020A00004990698461ACDF8049004980090002DE3
:1020B00001DD012705E00DB9002702E04FF0FF37F1
:1020C0006D42002E02DD4FF0010806E016B94FF018
:1020D000000802E04FF0FF387642B54201DD2C46A1
:1020E00000E034460020029019E0DDE9001000F025
:1020F00043FBAA44B344A24505DDAAEB040A0198B8
:10210000384480B20190A34505DDABEB040B009889
:10211000404480B200900298401C80B20290611C42
:1021200002988842E1DD07B0BDE8F08F2DE9F0416B
:1021300004460D4616461F46DDF81880B8F1000F1C
:102140000CD03B4632462946204600F0AFF906FB4C
:1021500007F01749098800F05CF827E0A019401E35
:1021600082B22B4629462046FFF790FFE819401E11
:1021700083B2A019401E82B2E819401E81B22046E7
:10218000FFF784FFE819401E83B222462946204605
:10219000FFF77CFFE919491E8BB2A119491E8AB2CB
:1021A000A119491E88B22946FFF770FFBDE8F081EA
:1021B0003C00002000B597B00121080200F076FD38
:1021C00001200190042003908006079000200290D7
:1021D0000490059006900890099008200A9010201D
:1021E0000B9000200C900E900F9010904FF48050A8
:1021F0001190002012901390149001A81590169041
:1022000008A8FFF71FFB01210020FFF701FB17B013
:1022100000BD70B504460D4600262C2000F0C8FA1B
:1022200000BF03E0284600F0C7FA761CA642F9D3A7
:1022300070BD000008B50121602000F047FD0320BB
:102240008DF8020018208DF803004FF48040ADF89F
:10225000000069465B48FFF79FFB4FF40040ADF874
:10226000000069465748FFF797FB0120ADF80000D2
:1022700069465448FFF790FB0220ADF8000069461C
:102280005048FFF789FB8020ADF8000069464E48B2
:10229000FFF782FB4FF48070ADF8000069464A48B2
:1022A000FFF77AFB4FF40070ADF80000694646482E
:1022B000FFF772FB4FF48060ADF8000069464248BA
:1022C000FFF76AFB4FF40060ADF8000069463E4836
:1022D000FFF762FB4FF48050ADF8000069463A48C2
:1022E000FFF75AFB4FF40050ADF80000694636483E
:1022F000FFF752FB4FF48040ADF8000069463248CA
:10230000FFF74AFB4FF40040ADF8000069462E4845
:10231000FFF742FB4FF48070ADF800006946294892
:10232000FFF73AFB4FF40070ADF80000694625480E
:10233000FFF732FB4FF48060ADF80000694621489A
:10234000FFF72AFB03208DF8020018208DF8030008
:102350001020ADF8000069461A48FFF71DFB202049
:10236000ADF8000069461748FFF716FB8020ADF86E
:10237000000069461348FFF70FFB4FF40060ADF80B
:10238000000069460F48FFF707FB10208DF8030097
:1023900003208DF802000220ADF8000069460A48CB
:1023A000FFF7FAFA10208DF8030003208DF80200E1
:1023B0004FF48050ADF8000069460248FFF7ECFA90
:1023C00008BD0000001401400018014010B504468B
:1023D000072C00DD10BD28480470204604EBD071A6
:1023E0004910A4EB410139B9F020244908804FF489
:1023F000A0702349088006E04FF4A0701F490880B0
:10240000F0201F490880362000F0D2F9082141EA67
:10241000441000F0D1F92A2000F0CAF9002000F0A1
:10242000CBF9002000F0C8F914490988491EC1F30E
:10243000072000F0C1F911490978491EC8B200F01F
:10244000BBF92B2000F0B4F9002000F0B5F9002012
:1024500000F0B2F90A490988491EC1F3072000F0CB
:10246000ABF907490978491EC8B200F0A5F92C203C
:1024700000F09EF900BFADE73400002030000020DE
:102480003200002010B5FFF7D5FEFFF793FE0120C4
:10249000FFF746FB00F052F900F038F802480078E8
:1024A000FFF794FF10BD0000340000202DE9F0413B
:1024B00004460D4616461F462A2000F079F92012E0
:1024C00000F07AF9E0B200F077F9A119491EC1F3E2
:1024D0000F2000F071F9A119491EC8B200F06CF983
:1024E0002B2000F065F9281200F066F9E8B200F040
:1024F00063F9E919491EC1F30F2000F05DF9E919EC
:10250000491EC8B200F058F9BDE8F08110B5CF20DF
:1025100000F04EF9002000F04FF9812000F04CF956
:10252000302000F049F9ED2000F042F9642000F07D
:1025300043F9032000F040F9122000F03DF981201A
:1025400000F03AF9E82000F033F9852000F034F982
:10255000102000F031F9782000F02EF9CB2000F0A7
:1025600027F9392000F028F92C2000F025F9002067
:1025700000F022F9342000F01FF9022000F01CF9CD
:10258000F72000F015F9202000F016F9EA2000F0FD
:102590000FF9002000F010F9002000F00DF9B12033
:1025A00000F006F9002000F007F91B2000F004F904
:1025B000B62000F0FDF80A2000F0FEF8A22000F09E
:1025C000FBF8C02000F0F4F8352000F0F5F8C12049
:1025D00000F0EEF8112000F0EFF8C52000F0E8F868
:1025E000452000F0E9F8452000F0E6F8C72000F0AB
:1025F000DFF8A22000F0E0F8F22000F0D9F8002087
:1026000000F0DAF8262000F0D3F8012000F0D4F82A
:10261000E02000F0CDF80F2000F0CEF8262000F0EA
:10262000CBF8242000F0C8F80B2000F0C5F80E20ED
:1026300000F0C2F8092000F0BFF8542000F0BCF808
:10264000A82000F0B9F8462000F0B6F80C2000F001
:10265000B3F8172000F0B0F8092000F0ADF80F2013
:1026600000F0AAF8072000F0A7F8002000F0A4F876
:10267000E12000F09DF8002000F09EF8192000F005
:102680009BF81B2000F098F8042000F095F810202B
:1026900000F092F8072000F08FF82A2000F08CF864
:1026A000472000F089F8392000F086F8032000F078
:1026B00083F8062000F080F8062000F07DF8302036
:1026C00000F07AF8382000F077F80F2000F074F866
:1026D000362000F06DF8C82000F06EF82A2000F0D7
:1026E00067F8002000F068F8002000F065F800208E
:1026F00000F062F8EF2000F05FF82B2000F058F8AF
:10270000002000F059F8002000F056F8012000F0F9
:1027100053F83F2000F050F83A2000F049F85520D7
:1027200000F04AF8112000F043F80348FFF720FAC0
:10273000292000F03DF810BDFCBF020010B50221B9
:102740000748FFF7BDF940F6FF20FFF711FA022115
:102750000348FFF7B7F940F6FF20FFF709FA10BD6D
:102760000018014070B504460D4601231A4629465B
:102770002046FFF79BFE70BD70B505460C46094824
:10278000008885420CDA08480088844208DA21462D
:102790002846FFF7E7FF054801880120FFF739FDCC
:1027A00070BD000030000020320000203C000020FE
:1027B0004FF0C04108807047014908807047000011
:1027C000000002602DE9FC4F0C461E464FEA004A0D
:1027D0009AFBF2FA0AF1010ACDF804A04FEA044A82
:1027E0009AFBF6FA0AF1010ACDF800A04FF00009B1
:1027F000202801DBBDE8FC8F00FB04FABAF1000FD2
:1028000000D1F7E700FB04FABAF5806F00DBF1E7CF
:1028100002FB06FABAF1000F00D1EBE702FB06FA61
:10282000BAF5804F00DBE5E7454BDDF834A0BAF19F
:10283000000F2BD100211FE0002517E0DDF82CA0B0
:102840001AF801A04FF0800B4BFA05FB0AEA0B0ABD
:10285000BAF1000F02D04FF0010A01E04FF0000A78
:1028600003F801AB05F1010A1FFA8AF5082DE5DB33
:1028700001F1010A1FFA8AF104FB00FA4FEAEA7B30
:102880000AEB5B7BB1EBEB0FD6DB2AE000211FE00C
:10289000002517E0DDF82CA01AF801A04FF0800BFE
:1028A0004BFA05FB0AEA0B0ABAF1000F02D04FF00F
:1028B000010A01E04FF0000A03F801AB05F1010A3B
:1028C0001FFA8AF5082DE5DB01F1010A1FFA8AF1EA
:1028D00004FB00FA4FEAEA7B0AEB5B7BB1EBEB0F00
:1028E000D6DB174B174F4FF0000C1AE04FF0000AE1
:1028F0004FEA194B00FB0B3ED0460AE00EEB1A4B99
:102900009BF800B007F808B0DDF804B0DA4408F12D
:1029100001089045F2D3DDF800B0D94417440CF11A
:10292000010CB445E2D3DFF81CA0CDF830A0DDF8EF
:1029300030A00AF1010ACDF830A000BF5AE700002C
:10294000F0410020F001002008B50121042000F032
:10295000BDF90120ADF8000004208DF803006946A0
:102960000148FFF719F808BD000801402DE9F04FB4
:102970008BB005460E4691469A46DDF850B00027CA
:10298000B84600200A90099008900790069005909C
:1029900000240490039002900190A9EB0500002808
:1029A00002DDA9EB050001E0A5EB090007B2AAEBE7
:1029B0000600002802DDAAEB060001E0A6EB0A00F3
:1029C0000FFA80F828B20A9030B20990A94503DBCB
:1029D00001200890079003E04FF0FF300890079027
:1029E000B24503DB01200690059003E04FF0FF3075
:1029F0000690059047450DDB0020089005903C4669
:102A0000384607EBD071491009B20491CDF80C801B
:102A100002970CE00020079006904446404608EBE1
:102A2000D071491009B204910397CDF808800020B5
:102A3000019041E00A9858442349098888420DDCF6
:102A40000A98B0EB0B0009D4099858441F4909882B
:102A5000884203DC0998B0EB0B0000D528E0099A06
:102A600091B20A9A90B201235A46FFF75DFADDE966
:102A70000310084400B204900498A0420DDB0498AF
:102A8000001B00B2049008990A98084400B20A900A
:102A900006990998084400B2099007990A980844D1
:102AA00000B20A9005990998084400B2099000BF45
:102AB0000198401C00B20190DDE901018842B9DDB6
:102AC0000BB0BDE8F08F0000300000203200002085
:102AD0000148006870470000380000200149088064
:102AE000704700003E000020024A1080024A118018
:102AF000704700003C0000203E00002001490860B3
:102B0000704700003800002001490880704700002D
:102B10003C00002008B50121082000F0D7F8212052
:102B2000ADF8000010208DF8030003208DF802009E
:102B300069460248FEF730FF08BD0000000C014066
:102B400010B50120064908600648FEF716F8012076
:102B50000349091F08600348FEF70FF810BD000085
:102B6000140C014020A1070010B50120064908609F
:102B70000648FEF702F801200349091F08600348D0
:102B8000FDF7FBFF10BD0000140C0140404B4C0052
:102B900000BFFEE7704708B54FF4A06000F046F8AC
:102BA00025208DF8000001208DF801008DF802002D
:102BB0008DF80300684600F001F808BD70B50021EB
:102BC00000230F22C47804B3154C246804F4E06495
:102BD000C4F5E064210AC1F10403CA40447804FA50
:102BE00003F184781440214309010E4C0678A15565
:102BF000047804F01F050124AC4005786D11AD0088
:102C000005F1E025C5F8004109E0047804F01F054E
:102C10000124AC40044D0678761145F8264070BD7D
:102C20000CED00E000E400E080E100E00249014337
:102C3000024A1160704700000000FA050CED00E048
:102C400070B505462846FFF7C1FB0020FFF746FF99
:102C5000114803881148028800210846FEF772FFD8
:102C600000F00EFC00240CE004EB44020C4B03EBE0
:102C7000C20004EB440203EBC20211698847601CE6
:102C8000C4B2102CF0DB00200649086008710988E6
:102C900088B2FFF739FF70BD3200002030000020FD
:102CA000F04500202C0100207047000029B1064AA1
:102CB00052690243044B5A6104E0034A5269824359
:102CC000014B5A61704700000010024029B1064ACA
:102CD00092690243044B9A6104E0034A9269824379
:102CE000014B9A61704700000010024030B500218E
:102CF0000022002400232D4D6D6805F00C0121B148
:102D0000042905D0082923D105E0294D056022E0DA
:102D1000274D05601FE0254D6D6805F47012234DA9
:102D20006D6805F48034022505EB92421CB9214DF3
:102D3000554305600BE01D4D6D6805F400351DB170
:102D40001C4D5543056002E0194D5543056002E0F6
:102D5000174D056000BF00BF144D6D6805F0F00110
:102D60000909154D6B5C0568DD4045600F4D6D68C8
:102D700005F4E061090A104D6B5C4568DD40856033
:102D80000A4D6D6805F46051C90A0B4D6B5C4568CE
:102D9000DD40C560054D6D6805F44041890B074D68
:102DA0006B5CC568B5FBF3F5056130BD00100240F2
:102DB00000127A0000093D001400002024000020C9
:102DC00021B1028842F04002028004E002884FF6FE
:102DD000BF731A400280704770B505460C46164610
:102DE00001211048FEF76CFE032000F07FF9C4F3C8
:102DF000074000F07BF9C4F3072000F077F9E0B258
:102E000000F074F904E0FF2000F070F928706D1CE8
:102E1000301EA6F101018EB2F5D101210148FEF765
:102E200051FE70BD001001402DE9F05F07460E46CF
:102E300014464FF00008C146C2460025AB4606F0D6
:102E4000FF0ACAF10000C5B22046E11704EB116188
:102E5000C1F30728E11704EB11610912A4EB01216A
:102E600001F0FF09BAF1000F20D1B8F1000F05D130
:102E700022463146384600F0C9F864E009E04FF4D4
:102E800080723146384600F0C1F806F5807607F5C5
:102E90008077B8F10000A8F1010101F0FF08EED140
:102EA0004A463146384600F0B1F84CE0B8F1000F20
:102EB00018D1A94510DDA9EB050000F0FF0B2A464B
:102EC0003146384600F0A2F82E442F445A46314687
:102ED000384600F09BF836E022463146384600F08E
:102EE00095F830E0601B84B22046E11704EB1161D5
:102EF000C1F30728E11704EB11610912A4EB0121CA
:102F000001F0FF092A463146384600F07FF82E448A
:102F10002F4409E04FF480723146384600F076F8CD
:102F200006F5807607F58077B8F10000A8F1010179
:102F300001F0FF08EED1B9F1000F04D04A46314646
:102F4000384600F063F8BDE8F09F000000B587B098
:102F500001210803FFF7BAFE0121D420FFF7B6FED6
:102F60000120ADF8040003208DF8060010208DF834
:102F7000070001A92248FEF70FFD2020ADF804004C
:102F800018208DF8070001A91E48FEF705FD402016
:102F9000ADF8040001A91B48FEF7FEFC8020ADF847
:102FA000040001A91748FEF7F7FC01211448FEF7B9
:102FB00089FD0020ADF808004FF48270ADF80A00DA
:102FC0000020ADF80C000220ADF80E000120ADF895
:102FD00010004002ADF812000820ADF814000020E7
:102FE000ADF816000720ADF8180002A9064800F059
:102FF000F1F801210448FFF7E3FE07B000BD00002F
:1030000000100140000801400030014070B5054645
:103010000C46164600F0C0F801211548FEF750FD99
:10302000022000F063F8C4F3074000F05FF8C4F337
:10303000072000F05BF8E0B200F058F8B6F5807FAA
:1030400004DD4FF480760BA001F060FB03E02878EC
:1030500000F04CF86D1C301EA6F101018EB2F6D1C5
:1030600001210348FEF72EFD00F07CF870BD000042
:10307000001001403C3C2D464C4153482D455252D6
:103080004F522D3E3E205350495F464C4153485FBE
:1030900050616765577269746520746F6F206C6149
:1030A000726765210A00000010B5044600F074F84C
:1030B00000F058F801210C48FEF702FD202000F036
:1030C00015F8C4F3074000F011F8C4F3072000F02E
:1030D0000DF8E0B200F00AF801210348FEF7F2FC17
:1030E00000F040F810BD00000010014010B504468B
:1030F0004FF48050194908600AE018490868411ED9
:10310000164A116020B9002000F082F8C0B210BD4C
:103110000221134800F050F80028EED02146104854
:1031200000F056F84FF480500C4908600AE00B4953
:103130000868411E094A116020B9012000F068F8B2
:10314000C0B2E4E70121064800F036F80028EED0CE
:10315000034800F03AF8C0B2D9E700002C00002084
:103160000030014010B5002401210A48FEF7A8FCF8
:103170000520FFF7BBFF00BFFF20FFF7B7FF0446A6
:1031800004F001000028F7D101210248FEF79AFC63
:1031900010BD00000010014010B501210548FEF7E8
:1031A0008FFC0620FFF7A2FF01210248FEF78AFCF0
:1031B00010BD0000001001400246002013890B40A2
:1031C0000BB1012000E0002070470146888970475C
:1031D0008181704710B50022028802F441520B88A9
:1031E0004C8823438C882343CC8823430C89234376
:1031F0004C8923438C892343CC8923431A4302807F
:10320000838B4FF2FF74234083830B8A038210BDAC
:1032100010B50446214602A001F078FA002010BD46
:103220003C3C2D464C4153482D4552524F522D3E69
:103230003E2053504920B5C8B4FDB3ACCAB1216596
:1032400072726F72436F6465203D2025640A00002E
:10325000704710B500F002F810BD00000CB500205A
:10326000019000903348006840F480303149086094
:1032700000BF3048006800F4003000900198401C06
:103280000190009818B90198B0F5A06FF1D12948C4
:10329000006800F4003010B10120009001E000202F
:1032A00000900098012843D12348006840F01000A6
:1032B000214908600846006820F0030008600846BD
:1032C000006840F0020008601A48406819494860E8
:1032D0000846406848600846406840F4806048609E
:1032E0000846406820F47C1048600846406840F476
:1032F000E81048600846006840F08070086000BF31
:103300000C48006800F000700028F9D009484068B7
:1033100020F00300074948600846406840F002007A
:10332000486000BF0348406800F00C000828F9D14D
:103330000CBD00000010024000200240042808D10B
:103340004FF0E021096941F004014FF0E0221161E2
:1033500007E04FF0E021096921F004014FF0E0227D
:10336000116170477047000010B51348006840F0C5
:1033700001001149086008464068104908400E499C
:103380004860084600680E4908400B490860084636
:10339000006820F4802008600846406820F4FE00A1
:1033A00048604FF41F008860FFF753FF4FF0006044
:1033B0000449086010BD0000001002400000FFF842
:1033C000FFFFF6FE08ED00E070B505460E4600244E
:1033D00050E004EB4400294901EBC0008088A8427A
:1033E0002CDB04EB440001EBC000C088B04225DBBD
:1033F00004EB440001EBC0004088B0421EDC04EB4B
:10340000440031F83000A84218DC04EB440001EB22
:10341000C000007B60BB012004EB4401174A02EBB3
:10342000C101087304EB4402144B03EBC20004EB2C
:10343000440203EBC2021169884719E004EB44001F
:103440000E4901EBC000007B012811D1002004EBE4
:1034500044010A4A02EBC101087304EB4402074B22
:1034600003EBC20004EB440203EBC202116988477C
:10347000601CC4B2102CACDB70BD0000F045002015
:103480000020C34908804880282088801C20C880EC
:103490000120886000200873BE480861BE4848616A
:1034A000002008831C21BA484183282181833821C8
:1034B000C18302210162002180F82410B549816294
:1034C000B649C1620020B24908863821B048418619
:1034D000282181865421C18603218163002180F83F
:1034E0003C10AC490164AE4941640020A849A1F8F0
:1034F00048005421A648A0F84A102821A0F84C10F2
:103500007021A0F84E1004210165002180F85410AC
:10351000A0498165A249C16500209D49A1F86000CC
:1035200070219B48A0F862102821A0F864108C211B
:10353000A0F8661005218166002180F86C1095497D
:1035400001679749416700209149A1F878008C21D3
:103550008F48A0F87A102821A0F87C10A821A0F8A4
:103560007E100621C0F88010002180F8841089495F
:10357000C0F888108A49C0F88C1000208449A1F84E
:103580009000A8218248A0F892102821A0F8941059
:10359000C421A0F896100721C0F89810002180F8E7
:1035A0009C107C49C0F8A0107D49C0F8A4100020F0
:1035B0007749A1F8A800C4217548A0F8AA102821CD
:1035C000A0F8AC10774801887148A0F8AE104CF212
:1035D0001861C0F8B010002180F8B4107249C0F82A
:1035E000B8107249C0F8BC1028206949A1F8C00081
:1035F00000216748A0F8C2105021A0F8C4101C2177
:10360000A0F8C6100921C0F8C810002180F8CC101D
:103610006049C0F8D0106049C0F8D41028205C4937
:10362000A1F8D8001C215A48A0F8DA105021A0F8BF
:10363000DC103821A0F8DE100A21C0F8E0100021CB
:1036400080F8E4105349C0F8E8105449C0F8EC1071
:1036500028204F49A1F8F00038214D48A0F8F21079
:103660005021A0F8F4105421A0F8F6100B21C0F856
:10367000F810002180F8FC104D49C0F800114D49A8
:10368000C0F8041128204249A1F8080154214048FB
:10369000A0F80A115021A0F80C117021A0F80E1109
:1036A0000C21C0F81011002180F814114049C0F815
:1036B00018114049C0F81C1128203549A1F82001F3
:1036C00070213348A0F822115021A0F824118C2138
:1036D000A0F826110D21C0F82811002180F82C1126
:1036E0003349C0F830113349C0F834112820284933
:1036F000A1F838018C212648A0F83A115021A0F8F1
:103700003C11A821A0F83E110E21C0F84011002163
:1037100080F844112649C0F848112649C0F84C11D8
:1037200028201B49A1F85001A8211948A0F85211DE
:103730005021A0F85411C421A0F856110F21C0F84F
:103740005811002180F85C111949C0F8601119491D
:10375000C0F8641128200E49A1F86801C4210C4862
:10376000A0F86A115021A0F86C110E480188084891
:10377000A0F86E111021C0F87011002180F87411AA
:103780000B49C0F878110B49C0F87C117047000054
:10379000F0450020A10C000859090008D1080008D4
:1037A000A5080008320000208D0B000869080008F9
:1037B0000D1100088508000870B505460E46002466
:1037C0003BE004EB44001F4901EBC0008088A842A5
:1037D00031DD04EB440031F83000A8422BDA04EB71
:1037E000440001EBC000C088B04224DD04EB44007B
:1037F00001EBC0004088B0421DDA002004EB440118
:10380000104A02EBC101087304EB44020D4B03EBB9
:10381000C20004EB440203EBC2021169884704EBC7
:103820004402084B03EBC20004EB440203EBC20268
:103830005169884703E0601CC4B2102CC1DB00BF93
:1038400070BD0000F045002010B540F22551084839
:1038500000F07BF830B1064800F032F9C4B22046DF
:1038600001F004FF2021024800F004F810BD000020
:103870000038014001F40072B2F5007F00D100BFB2
:10388000CA430280704721B1828942F4005282818A
:1038900004E082894DF6FF731A4082817047000070
:1038A00000B585B001210420FFF710FA012188033B
:1038B000FFF70CFA4FF40070ADF8100018208DF8E7
:1038C000130003208DF8120004A91748FEF764F8CE
:1038D0004FF48060ADF8100004208DF8130004A9A7
:1038E0001148FEF759F84FF4165000900020ADF83B
:1038F0000400ADF80600ADF80800ADF80C000C208F
:10390000ADF80A006946094800F06EF8FFF743F980
:10391000012240F22551054800F041F801210348F9
:10392000FFF7B1FF05B000BD0008014000380140BD
:1039300002460020B1F5007F00D100BF13880B4084
:103940000BB1012000E00020704770B50246002452
:1039500000230025002040F66A16B14200D100BFC6
:10396000C1F3421501F01F03012606FA03F3012DEE
:1039700002D19689334006E0022D02D1168A3340E7
:1039800001E0968A33400C12012606FA04F41688E8
:10399000344013B10CB1012000E0002070BDF0B53F
:1039A0000346002400260025002040F66A17B9428D
:1039B00000D100BF1846C1F3421401F01F060127D1
:1039C00007FA06F5012C01D10C3004E0022C01D1DC
:1039D000103000E014301AB107682F43076002E08E
:1039E0000768AF430760F0BD2DE9F04786B0054694
:1039F0000E460024A24600BFA1460027B08900B1B0
:103A000000BF2F462C8A4CF6FF700440F088044318
:103A10002C82AC894EF6F3100440B08831890843FB
:103A2000718908430443AC81AC8A4FF6FF400440DF
:103A3000B0890443AC8201A8FFF758F91F488742B8
:103A400002D1DDF810A001E0DDF80CA0A88900F497
:103A5000004040B10AEBCA0000EB0A10316849008F
:103A6000B0FBF1F807E00AEBCA0000EB0A1031687E
:103A70008900B0FBF1F86420B8FBF0F004012009E4
:103A8000642101FB1089A88900F4004040B1322074
:103A900000EBC900B0FBF1F000F00700044308E0C0
:103AA000322000EB09106421B0FBF1F000F00F00B0
:103AB00004432C8106B0BDE8F087000000380140C7
:103AC00001468888C0F308007047C1F3080282806D
:103AD000704700BFFEE770B504460D4629462046F4
:103AE000FFF7F3FF00BF80212046FFF721FF0028EA
:103AF000F9D070BD2DE9F04105460C461646012768
:103B0000B4F90010B4F91020891AB4F90A30B4F9E4
:103B100012209A1A5143B4F90820B4F91030D31A7C
:103B2000B4F902C0B4F91220ACEB020203FB12108C
:103B3000FCF7DCFCB0610021B069FCF73DFD01D170
:103B40000027C3E0B5F90010B5F91020891AB4F9BF
:103B50000A30B4F912209A1A5143B5F90820B5F980
:103B60001030D31AB4F902C0B4F91220ACEB02023F
:103B700003FB1210FCF7BAFC3060B4F90010B4F982
:103B80001020891AB5F90820B5F91030D21A51431E
:103B9000B5F90020D21AB4F90830B4F910C0A3EB7B
:103BA0000C0302FB1310FCF7A1FC7060B4F91010B9
:103BB000B5F908205143B4F90820B5F9103002FBDB
:103BC0001311B4F902205143B4F900205A43B4F957
:103BD0001030B5F900C003FB1C23B4F90A2003FB25
:103BE0000212B4F9081001FB0CF1B4F90030B5F978
:103BF00008C003FB1C13B4F9121003FB0120FCF7EF
:103C000075FCB060B5F90220B5F91210511AB4F97B
:103C10000A30B4F912209A1A5143B5F90A30B5F9AD
:103C200012209B1AB4F902C0B4F91220ACEB0202C4
:103C300003FB1210FCF75AFCF060B4F90010B4F961
:103C40001020891AB5F90A30B5F912209A1A514391
:103C5000B5F90230B5F912209A1AB4F90830B4F95E
:103C600010C0A3EB0C0302FB1310FCF73FFC306108
:103C7000B4F91010B5F90A205143B4F90830B5F978
:103C8000122003FB1211B4F902205143B4F90020B1
:103C9000B5F912305A43B4F91030B5F902C003FB3C
:103CA0001C23B4F90A2003FB0213B4F9081001FB2A
:103CB0000CF1B4F900C0B5F90A200CFB1212B4F9EA
:103CC000121002FB0130FCF711FC70613846BDE8B0
:103CD000F08101B5002007E00C2100BF0A1EA1F110
:103CE0000103D9B2FAD1401C00998842F4D308BD2F
:103CF0002DE9FC5F05460C460126684600F0BEF83B
:103D0000002865D0BDF90200FCF7F0FB834632487D
:103D1000007800EB400004EBC00041685846FCF717
:103D200094FA8146BDF90000FCF7E0FB83462A487F
:103D3000007800EB400054F830105846FCF785FA44
:103D400082464946FCF729FA80462348007800EB72
:103D5000400004EBC00081684046FCF71EFA0746AD
:103D6000FCF7CDFB00B22880BDF90200FCF7BEFBDA
:103D700083461948007800EB400004EBC00001695D
:103D80005846FCF762FA8146BDF90000FCF7AEFB2D
:103D900083461148007800EB400004EBC000C16886
:103DA0005846FCF752FA82464946FCF7F6F9804637
:103DB0000948007800EB400004EBC0004169404630
:103DC000FCF7EBF90746FCF79AFB00B2688000E0CD
:103DD00000263046BDE8FC9F3400002008B50121D4
:103DE0006020FEF773FF0120ADF800008DF802009F
:103DF00010208DF8030069461A48FDF7CDFD042018
:103E0000ADF8000069461748FDF7C6FD0820ADF87B
:103E1000000001208DF8020048208DF8030069465B
:103E20001048FDF7B9FD4FF40050ADF80000012037
:103E30008DF8020010208DF8030069460A48FDF74E
:103E4000ABFD4FF400510848FDF73AFE1020ADF8E5
:103E5000000048208DF8030069460248FDF79CFDEC
:103E600008BD0000001801400014014010B50446D0
:103E7000204600F019FC00F0C1F810BD2DE9F04714
:103E80008CB00646002528216846FCF774F900BF6F
:103E90000AA90BA800F09EF8BDF92C002DF815001A
:103EA000BDF9281005A820F81510681CC5B210210E
:103EB0004648FDF7FCFD08B90A2DE9DB102143480F
:103EC000FDF7F5FD10B10020414908700A2D7BD1A6
:103ED000BDF90070B846BDF91490CA4601240EE041
:103EE0003DF91400B84202DA3DF9147005E03DF9DD
:103EF0001400404501DD3DF91480601CC4B20A2C59
:103F0000EEDB012412E005A830F91400484503DA7D
:103F100005A830F9149007E005A830F914005045C1
:103F200002DD05A830F914A0601CC4B20A2CEADB3B
:103F3000BDF90000BDF902100844BDF904100844A1
:103F4000BDF906100844BDF908100844BDF90A106F
:103F50000844BDF90C100844BDF90E100844BDF921
:103F600010100844BDF912100844C01BA0EB080053
:103F7000C01000B23080BDF91410BDF91600014424
:103F8000BDF918000144BDF91A000144BDF91C0037
:103F90000144BDF91E000144BDF920000144BDF9F2
:103FA00022000144BDF924000144BDF92600084463
:103FB000A0EB0900A0EB0A00C01000B27080012045
:103FC0000CB0BDE8F087FFE70020F9E700180140DA
:103FD000000100202DE9F04104460D469020FFF736
:103FE00045FF06B20120FFF774FED020FFF73EFF29
:103FF00007B226802F80BDE8F081000070B5002553
:1040000004211148FDF75CFD01210F48FDF75AFD21
:10401000002414E001210C48FDF752FD08210A4854
:10402000FDF745FD0646C4F10B0006FA00F02843F3
:1040300085B201210448FDF745FD601CC4B20C2C7B
:10404000E8DB284670BD00000018014010B50024D0
:104050002748007820B1012811D002283FD12FE055
:1040600010212448FDF723FD20B9012020490870C4
:10407000002403E000201E490870002434E01021D1
:104080001C48FDF714FDA0B91B480068401C1A49E4
:10409000086008460068022806D90020086002204F
:1040A0001349087001240AE0012011490870002416
:1040B00005E00020104908600D490870002413E055
:1040C00010210C48FDF7F3FC20B9022008490870C4
:1040D000012403E0002006490870002404E00020C9
:1040E00003490870002400BF00BF204610BD000037
:1040F00001010020001801400401002038B50446E9
:10410000B4F90400401C20B9B4F90400401C00B903
:1041100038BD628891B2228890B2FFF755F90748FE
:104120000090B4F90230B4F90020B4F90610B4F9E3
:104130000400FDF70DFA00BFEAE700002C010020A3
:1041400010B5FFF783FF012810D10E490E48FFF785
:10415000CFFD00BF00BF0C48FFF7D0FF0A48008822
:104160000949888008464088C88009E0064800F070
:104170000DF84FF0FF300449088048808880C880DF
:1041800010BD0000400000200801002010B50446CA
:10419000B4F90400401C20B9B4F90400401C00B973
:1041A00010BDE28891B2A28890B2FFF705FB00BF74
:1041B000F6E700002DE9F04FB9B004464FF00009D2
:1041C000CA4600201E901D900026FE48FEF796FC71
:1041D00000211F20FEF788FC2046FEF7F7F8FA487A
:1041E00000888010ADF85400F84800888010ADF8C1
:1041F0005600BDF85400ADF85C00F448008800EBB0
:104200004000801001B215A84181EF48008800EB02
:104210004000801000B2ADF8640015A841894182C9
:10422000BDF86400ADF86C00BDF8561015A84183C8
:10423000002558E0E5480388E34802880021084645
:10424000FDF780FCE2A6FEF743FC8088DE49098882
:1042500091FBF0F83046FBF799FFA8EB0000470808
:1042600020233A46E0A11FA8009600F05FFAD74944
:10427000098848101FA9FDF713FDFEF729FC808867
:10428000D149098891FBF0F0471E681C009007EBAC
:10429000D77042102023D6A11FA800F047FAFEF7DE
:1042A00017FCC088C9490988C0EB610087B21FA903
:1042B0003846FDF7F5FCD048FFF70BFD15AA02EBD9
:1042C000C502528891B215AA32F8352090B2FDF796
:1042D000C7FE00BF0DA901EBC500FFF7CFFD002809
:1042E000F8D0681CC5B2042DA4DB06AA0DA915A838
:1042F000FFF700FC00210C98FCF75EF900D143E1C8
:10430000BDF94E00FCF7F2F803900799FBF79DFF0B
:104310008346BDF94C00FCF7E9F803900699FBF7DA
:1043200094FF59460490FBF738FF80460899FBF745
:1043300034FF05900C99FBF7BAFF0746FCF7F8F835
:104340001FFA80F9BDF94E00FCF7D0F803900A99E6
:10435000FBF77BFF0590BDF94C00FCF7C7F8039015
:104360000999FBF772FF04900599FBF716FF834646
:104370000B99FBF712FF80460C99FBF798FF074655
:10438000FCF7D6F81FFA80FABDF96C00484504DA4C
:10439000BDF96C00A9EB000003E0BDF96C00A0EBD7
:1043A000090080B21E90BDF96E00504504DABDF9D7
:1043B0006E00AAEB000003E0BDF96E00A0EB0A005E
:1043C00080B21D901E980F2802DC1D980F2800DD7A
:1043D000DAE00C98FCF7C0F8CDE902010698FCF78A
:1043E000BBF807460022854BFBF79FFFCDE9000194
:1043F000DDE90223FCF70BF8CDE90401FCF7BFF877
:1044000004EB44017E4A42F831000C98FCF7A4F812
:10441000CDE902010798FCF79FF807460022774B89
:10442000FBF783FFCDE90001DDE90223FBF7EFFF96
:10443000CDE90401FCF7A3F804EB4401704A02EB58
:10444000C10148600C98FCF787F8CDE90201089893
:10445000FCF782F807460022684BFBF766FFCDE9C0
:104460000001DDE90223FBF7D2FFCDE90401FCF7EF
:1044700086F804EB4401624A02EBC10188600C98A3
:10448000FCF76AF8CDE904010998FCF765F8002209
:104490005A4BCDE90001FBF748FFCDE90201DDE908
:1044A0000423FBF7B4FF0746FCF769F804EB44016B
:1044B000534A02EBC101C8600C98FCF74DF8CDE9F6
:1044C00004010A98FCF748F800224C4BCDE90001A2
:1044D000FBF72BFFCDE90201DDE90423FBF797FF92
:1044E0000746FCF74CF804EB4401454A02EBC101D6
:1044F00008610C98FCF730F8CDE902010B98FCF745
:104500002BF800223D4BCDE90001FBF70EFF0746DB
:10451000DDE90223FBF77BFFCDE90401FCF72FF86F
:1045200004EB4401364A02EBC10148612748038885
:104530002548028800210846FDF704FB4FF4FC6083
:10454000FEF7E2FA2FA6FEF7C3FA80881E49098813
:1045500091FBF0F83046FBF719FEA8EB0000470886
:1045600020233A4620A11FA8009600F0DFF8174943
:10457000098848101FA9FDF793FB2748FFF7A9FBFF
:10458000012039B0BDE8F08F104803880E4802883A
:1045900000210846FDF7D6FA4FF47840FEF7B4FA4A
:1045A0001EA6FEF795FA80880749098891FBF0F866
:1045B0003046FBF7EBFDA8EB0000470820233A4606
:1045C00009A133E01001002030000020320000205B
:1045D000546F7563682043616C6962726174652011
:1045E0002E2E2E2E2E2E0000252A6325730000006D
:1045F000252A632564000000E09304000000F03FDA
:104600004000002043616C696272617465205375DB
:10461000636365640000000040420F0043616C6901
:104620006272617465206661696C00001FA8009663
:1046300000F07CF81649098848101FA9FDF730FBE7
:1046400014A6FEF745FA80881549098891FBF0F811
:104650003046FBF79BFDA8EB0000470820233A46B5
:10466000AFF27C011FA8009600F060F8FEF730FA68
:10467000C0880749098800EB610087B21FA9384646
:10468000FDF70EFB0748FFF724FB002079E7000049
:104690003200002074727920616761696E00000049
:1046A0003000002040420F0070B505460421164836
:1046B000FDF706FA01211448FDF702FA00241FE075
:1046C000C4F1070045FA00F000F0010020B1042118
:1046D0000D48FDF7F7F903E004210B48FDF7F0F969
:1046E0000520FFF7F6FA01210748FDF7EBF9052051
:1046F000FFF7EFFA01210448FDF7E2F9601CC4B2AC
:10470000082CDDDB70BD0000001801400FB4054B24
:1047100010B503A9044A029800F02CF810BC5DF80B
:1047200014FB0000794F0008600100200FB4084B13
:1047300010B504A902AA039800F01CF8044602A9C7
:10474000002000F0B8F9204610BC5DF814FB000012
:10475000B74A000802E008C8121F08C1002AFAD1AF
:1047600070477047002001E001C1121F002AFBD1F1
:10477000704700002DE9FF4F8BB0884605460026A4
:1047800006E025280BD0DDE90D1290476D1C761C44
:1047900028780028F5D10FB03046BDE8F08F00240E
:1047A000A146A2460122AE4900E0044315F8013FAC
:1047B000203B02FA03F00842F7D128782A2810D0CB
:1047C0006FF02F022878A0F13001092915D809EBE4
:1047D000890102EB410144F0020400EB01096D1C68
:1047E000F0E758F8041B5FEA010903D544F40054CC
:1047F000C9F1000944F002046D1C28782E2817D155
:1048000015F8010F44F004042A280ED06FF02F028F
:104810002878A0F1300109290AD80AEB8A0102EBB5
:10482000410100EB010A6D1CF2E758F804AB6D1C66
:1048300028786C280FD006DC4C2817D068280DD0BB
:104840006A2814D104E0742810D07A280FD10DE022
:1048500044F400140AE044F4801401E044F44014E9
:104860006978814202D104F580146D1C6D1C287892
:10487000692865D006DC00288DD0632827D06428FD
:1048800006D15DE06E2808D073282AD0752877D02D
:10489000DDE90D129047761CE0E0C4F302500228D7
:1048A00009D003280DD0D8F8001004280DD00E60D0
:1048B00008F10408D2E0D8F80010F217C1E900624C
:1048C000F6E7D8F800100E80F2E70E70F0E718F85F
:1048D000041B8DF8001000208DF80100EB4601202C
:1048E00003E058F804BB4FF0FF3061074FF00007BA
:1048F00001D40AE07F1C57450DDA8742FADB1BF82A
:1049000007100029F6D106E07F1C8742FCDB1BF86C
:1049100007100029F8D1DDE90D23A9EB0700814636
:10492000214600F0B1F83044C61904E0DDE90D126B
:104930001BF8010B90477F1EF8D22146484688E0BD
:1049400058F8040BC4F302514FF00A0B032900D1AD
:1049500000B2042900D140B2002802DA40422D21E1
:1049600002E0210505D52B218DF82410012104E05A
:1049700006E0E10710D02021F6E708AF089113E028
:1049800058F8040BC4F302514FF00A0B032900D16D
:1049900080B2042900D1C0B20021EEE75946FBF7EE
:1049A00015FE303107F8011D0028F7D1ADEB0700E7
:1049B00000F1200B600702D524F4803401E04FF0B1
:1049C000010ADA4502DDAAEB0B0000E00020824676
:1049D00000EB0B0108980144A9EB01000A90E003E9
:1049E00006D4DDE90D2321460A9800F04DF806446F
:1049F0004FF0000908E009A911F80900DDE90D12DE
:104A0000904709F10109761C08998945F3DBE00319
:104A10000CD5DDE90D2321460A9800F035F806444F
:104A200004E0DDE90D1230209047761CBAF1000158
:104A3000AAF1010AF5DC05E0DDE90D1217F8010B1A
:104A40009047761CBBF10001ABF1010BF4DC0A9836
:104A50002146DDE90D2300F005F806446D1C97E6BC
:104A6000092801002DE9F041044600251E4617469D
:104A7000880404D405E039462020B0476D1C641E2C
:104A8000F9D52846BDE8F0812DE9F041044600251E
:104A90001E469046C80301D5302700E02027880431
:104AA00004D505E041463846B0476D1C641EF9D573
:104AB0002846BDE8F0810A68531C0B6010707047EF
:104AC00010B500221146012000F0DEFB002103207A
:104AD00000F014FC0021072000F0A4FB00210820B6
:104AE00000F0A0FB00210B2000F008FC00210C20AE
:104AF00000F098FB00210F2000F000FC00211020A6
:104B000000F0FCFB0021112000F0F8FB08480178C0
:104B1000132000F087FB0021142000F083FB1921F3
:104B2000652000F0EBFB4B21662000F0E7FB10BD99
:104B30004801002001460020087800024A7810430E
:104B400000028A7810430002CA78104370470000C0
:104B50002DE9F05F04463C49E01C11F800A0BAF1D1
:104B6000050F2DD007DCBAF1050F68D2DFE80AF097
:104B7000101316192400BAF1060F25D0BAF1080F48
:104B800048D0BAF10E0F48D0BAF12B0F57D14FE0F1
:104B900000F074FA54E000F097FC51E000F024FAC1
:104BA0004EE02949A01D085C284908700022032115
:104BB000084600F039FE43E00120254908703FE037
:104BC0000120244908703BE01F49601D095C1E4A12
:104BD000201D105C41EA0028002518E0A01D284493
:104BE000801C1949085C4FF6FF7101EA0027A01DDF
:104BF0002844C01C1449085C384487B22144891DEC
:104C0000481900F029F88346381D284485B24545E7
:104C1000E4DB15E0FFF754FF12E00B49A01D0E5C2A
:104C2000E01D11F800904946304600F06BFD07E0AA
:104C30000549A01D0E5C304600F0DEF900E000BF23
:104C400000BFBDE8F09F0000704700205701002022
:104C500055010020560100202DE9F0470446267832
:104C600094F80180A0784FF6FF7101EA0025E07802
:104C7000284485B2304600F09FF90746084800EB0B
:104C800047004078404502D00020BDE8F0872A4622
:104C9000211D304600F088F881464846F5E70000BF
:104CA000EC93000810B56FF00400FEF747FB0A48CC
:104CB00000680A49B0FBF1F009490870084600781D
:104CC00000EB4001C1EBC0104FF6FF7101EAC000DC
:104CD0000449088010BD00000000002000127A0086
:104CE0005A0100205C0100200146114A12884A4303
:104CF0004FF0E0235A6100229A611A46126942F08D
:104D000001021A6100BF4FF0E022106900F00102B9
:104D10001AB100F48032002AF5D04FF0E022126977
:104D200022F001024FF0E0231A6100229A617047DD
:104D30005C0100200146114A12784A434FF0E023FB
:104D40005A6100229A611A46126942F001021A6100
:104D500000BF4FF0E022106900F001021AB100F428
:104D60008032002AF5D04FF0E022126922F00102D1
:104D70004FF0E0231A6100229A6170475A01002027
:104D80002DE9F04104460D462946204600F0F2FA8E
:104D900007463946072000F045FA0646012E01D1A4
:104DA000BDE8F0810020FBE72DE9F04105460E4605
:104DB0001746082D1ED006DC012D09D0032D0DD07D
:104DC000072D29D110E0132D1AD0142D24D11DE068
:104DD0003946304600F09AF804461EE0394630461F
:104DE00000F078F8044618E039463046FFF7C8FF6F
:104DF000044612E03946304600F0AAF804460CE0BA
:104E00003946304600F00EF8044606E03946304692
:104E100000F08AF8044600E000BF00BF2046BDE86D
:104E2000F08100002DE9F04106460F463946304634
:104E300000F0A0FA0546BDB920201D4908600020F9
:104E40001C4908701C48FDF759FE00214FF47840BA
:104E5000FDF74AFE19A290216020FCF755FF0021C2
:104E6000132000F0DFF917E020201149091D086028
:104E70000120104908701048FDF740FE00214FF452
:104E80007840FDF731FE10A290216020FCF73CFF36
:104E90000121132000F0C6F92946132000F0C2F9C1
:104EA0000446012C01D1BDE8F0810020FBE70000A1
:104EB000100C014048010020100100204C69676877
:104EC00074204F66660000004C6967687420204FAC
:104ED0006E0000002DE9F04105460E463146284699
:104EE00000F04BFA0446012007490870E0B200F0D8
:104EF00071FA2146032000F001FA0746012F01D183
:104F0000BDE8F0810020FBE74701002070B50446B2
:104F10000D462A462146012000F0B6F90646012E2C
:104F200000D170BD0020FCE72DE9F04104460D469C
:104F30002946204600F01EFA07463946142000F0A4
:104F400071F90646012E01D1BDE8F0810020FBE792
:104F50002DE9F04104460D462946204600F00AFAA4
:104F600007463946082000F05DF90646012E01D1BA
:104F7000BDE8F0810020FBE770B504460D46E1B2C4
:104F80000548FEF7A2FD00BF80210348FEF7D0FCD4
:104F90000028F9D0204670BD0038014030B50246E7
:104FA0000020002305E012F8015B2C18E0B25C1C25
:104FB000A3B28B42F7DB30BD70B5054600F012F8A6
:104FC0000646002407E0064810F81400A84200D165
:104FD00003E0601CC4B2B442F5DB00BF204670BDE4
:104FE000EC9300080D20704710B5002422460321E1
:104FF000022000F019FC10BD1CB50446072C2DD270
:10500000DFE804F004070A0E132A2B00FDF798FDD1
:1050100025E0FDF7A9FD22E00120124908601EE00D
:1050200020201049091D086019E001200D49091DC3
:1050300008600D48FDF762FD00214FF47840FDF750
:1050400053FD002009A110231A46CDE900100146A6
:105050006020FCF7B3FE02E001E000E000BF00BF0B
:105060001CBD0000100C014010010020576966694A
:1050700020636F6E6E6563746564000010B5002474
:105080000B48007840B90021204600F0C9FAC4B2AC
:1050900001200749087004E00121204600F0C0FA11
:1050A000C4B222460321002000F0BEFB10BD000068
:1050B000580100201CB5FDF7E5F9FEF78FFE002131
:1050C0000320FBF78BFBFFF7EDFDFEF7E9FBFDF798
:1050D00021FDFCF71FFB0320FDF778F93448007829
:1050E000FDF7AEFD00F0F8FAFCF720FC3148FDF7C3
:1050F00005FD00214FF47840FDF7F6FC2E482FA166
:1051000002683348FFF712FB314A60210846FCF77A
:10511000FBFD00202FA110231A46CDE90010014607
:105120006020FCF74BFEFBF785FC3FE000F0EEFA59
:10513000FFF706F82C492D48FBF7D1FC1D48FDF779
:10514000DDFC00214FF47840FDF7CEFC284829A172
:1051500002681F48FFF7EAFA1D4A30216020FCF779
:10516000D3FD2148027827A12948FFF7DFFA284A12
:10517000C0210846FCF7C8FD1B480178662000F0F6
:10518000BDF81A48027823A12548FFF7CFFA244A30
:10519000C0216020FCF7B8FD14480178652000F0BC
:1051A000ADF800F0F1F80446FFF726FFBEE7000077
:1051B000340000201001002038010020CAD6B6AF0C
:1051C000CDB6CEB9C1BFA3BA20256420000000002F
:1051D00064010020B7FECEF1C6F7D4DACFDFA3A179
:1051E000A3A1A3A1000000002900002028000020A6
:1051F0003C010020D7DCCEB9CAB3C1BFA3BA202579
:1052000064200000CAAAB6C8A3BA20256420000002
:10521000DC010020CEC2B6C8A3BA2025642000005D
:10522000C801002070B504460D46002615480078D8
:10523000012800D170BD2146304600F0F1F9064644
:105240000121304600F0ECF906460021304600F01E
:10525000E7F906460121304600F0E2F906462DB98D
:105260000021304600F0DCF9064604E0012130461A
:1052700000F0D6F9064632460321072000F0D4FAA2
:105280000120D7E7540100202DE9F0410646884669
:105290001446002718480078012801D1BDE8F081A4
:1052A0003146384600F0BCF907460021384600F088
:1052B000B7F907462546E01704EB1060C0F3072155
:1052C000384600F0ADF90746E01704EB1060001215
:1052D000A4EB0020C1B2384600F0A2F907462246EE
:1052E0004146384600F088F907463A460321072030
:1052F00000F09AFA0120D1E75401002070B505466C
:105300000C4600261A480078012800D170BD2946B5
:10531000304600F085F906460221304600F080F95B
:1053200006460021304600F07BF90646042130464F
:1053300000F076F90646210E304600F071F9064677
:10534000C4F30741304600F06BF90646C4F3072169
:10535000304600F065F90646E1B2304600F060F9EB
:10536000064632460321072000F05EFA0120CDE711
:105370005401002002461078704710B503460C46D1
:105380001846FFF7D7FB10BD0148007870470000B2
:105390005701002010B500200349087000220321A6
:1053A000042000F041FA10BD5501002070B50446FC
:1053B00000250020064908702146284600F030F9F3
:1053C000C5B22A460321052000F02EFA70BD000068
:1053D0005601002010B50446184804601848FDF72F
:1053E0008DFB00214FF47840FDF77EFB134815A19B
:1053F00002681948FFF79AF9174A60210846FCF736
:1054000083FC08211548FCF75DFB04211348FCF7D9
:1054100057FB134904FB01F0FBF7AFFB04210F48D6
:10542000FCF74EFB08210D48FCF74AFB0D480068CD
:105430000249096808440B49086010BD3801002082
:1054400010010020CAD6B6AFCDB6CEB9C1BFA3BA3F
:1054500020256420000000006401002000080140B5
:10546000809698003C010020F0B505460E46134694
:105470002A46344605B10EB90020F0BDA24202D939
:10548000E018904208D2002103E0605C5054481CB0
:1054900081B29942F9DB07E0194603E0481E275C18
:1054A000175481B20029F9DC2846E6E701460022BC
:1054B00009B900207047002200E0521C11F8013B9E
:1054C000002BFAD11046F5E73EB5002400200090ED
:1054D0000190029034A0FFF7E9FF85B22A4632A17D
:1054E000204600F089F8C4B231A0FFF7DFFF85B293
:1054F0002A462FA1204600F07FF8C4B231A0FFF762
:10550000D5FF85B22A462FA1204600F075F8C4B217
:105510002EA0FFF7CBFF85B22A462CA1204600F033
:105520006BF8C4B22BA0FFF7C1FF85B22A4629A1B0
:10553000204600F061F8C4B228A0FFF7B7FF85B29B
:105540002A4626A1204600F057F8C4B20A2224A118
:105550006846FFF7EBF86846FFF7A8FF85B22A46D2
:105560006946204600F048F8C4B200221FA16846F0
:10557000FFF7DCF86846FFF799FF85B22A466946CF
:10558000204600F039F8C4B21AA0FFF78FFF85B2A9
:105590002A4618A1204600F02FF8C4B22246032163
:1055A000012000F041F93EBD7B2270223A2200002A
:1055B000676B74716E706369796F666E6C38736354
:1055C00000000000222C2276223A2200312E302EBA
:1055D00030000000222C226D223A00003200000030
:1055E0002C226D74223A2564000000002C226E22C9
:1055F0003A2564007D0000002DE9F04104460E4686
:105600001546064807192A4631463846FFF72CFF4B
:10561000601984B22046BDE8F0810000AC4700204C
:10562000024B1A181170431C98B27047AC47002007
:105630000B4909680B4A126891420FD008490A6861
:1056400009498A4202D31739054A11600449096899
:10565000087803490968491C014A11607047000035
:10566000500100204C010020A64700201249096883
:10567000124A1268891A01291CD0104909680E4A79
:105680001268914206D90D4909680B4A1268891AB5
:1056900017290FD209490A6809498A4202D31739E2
:1056A000064A116005490968087004490968491CDF
:1056B000024A116070470000500100204C01002098
:1056C000A647002010B5044621460248FEF703FA1B
:1056D00010BD000000380140054806490860064931
:1056E0000860002005490870FF20054908707047D0
:1056F0008F4700204C010020500100205401002061
:105700005701002008B901B100BF704770B50024EF
:10571000002509E0FFF78CFF38490A880988491CF1
:10572000364B198036498854344800881F2803D2E4
:1057300000F09EF80028EDDC30480088072800DAE9
:1057400070BD42E02E48005D552802D0601C84B236
:105750003BE02B49601C085CAA2802D0601C84B284
:1057600033E02749A01C085C10B1A01C84B22CE0D7
:105770002349201D085C4FF6FF7101EA00252049EE
:10578000601D085CC01D284485B2262D02D9E01C8E
:1057900084B21AE019480088001BA84200DA19E018
:1057A0006A1E91B2164A1019FFF7F8FB6119491EDB
:1057B000134A515C884202D0E01C84B205E02046C6
:1057C000FFF7C6F9601984B200BF0C480088001BBF
:1057D0000728B7DA00BF09480088001B074908807E
:1057E00008460088002806DD05480119034802889C
:1057F0000348FFF739FE00BFA2E700004001002088
:105800007047002070B504460D4604B105B970BD5F
:1058100003E02078FFF756FF641C281EA5F1010164
:105820008DB2F6D100BFF2E72DE9F04105460E46F4
:105830001446002755200D490870AA2048700846D4
:105840008670C570201208714C71E01D84B2601E14
:1058500081B20648FFF7A2FB0746601E03490F54BA
:1058600021460248FFF7CEFFBDE8F081A6470020A1
:105870000448006804490968884201D00120704743
:105880000020FCE74C010020500100200000000037
:1058900000000000000000000000000000000018F0
:1058A0001818181818080008180000000000003424
:1058B000242424000000000000000000000000007C
:1058C00016247F2424247E242400000000000008E5
:1058D0003E6848681C1612127C101000000000611F
:1058E000D296740810162949C60000000000000076
:1058F0003C646438724ACE467F0000000000001805
:10590000181818000000000000000000000000044B
:10591000081810303030301010180C04000000202F
:105920001008080C0404040C0818102000000008DB
:105930000A341C6A0800000000000000000000009B
:1059400000001818187F1818180000000000000048
:1059500000000000000000181808300000000000DF
:1059600000000000003C00000000000000000000FB
:1059700000000000000000181800000000000002F5
:1059800006040C0808101020204000000000000051
:105990003C6642475B7342663C000000000000002A
:1059A00018784808080808087E0000000000000079
:1059B0003C460606040810207E000000000000009F
:1059C0007C0606043C0202067C0000000000000089
:1059D0000C1C14246444FF040400000000000000B8
:1059E0007E6060607E0202067C0000000000000015
:1059F0001E306048764242623C0000000000000019
:105A00007E0206040C0818103000000000000000A0
:105A10003C6242361C6642423C000000000000002E
:105A20003C664242661A0204780000000000000052
:105A30000000181800000018180000000000000006
:105A400000001818000000181808300000000000BE
:105A5000000004183060100C060000000000000078
:105A6000000000007E007E0000000000000000003A
:105A70000000301804060C10200000000000003068
:105A80001C06060618100010100000000000001C84
:105A9000224141DDB5A5A5AF94C0403C0000000007
:105AA000181C342426627E43C10000000000000060
:105AB0007C4642467C4242427C00000000000000DE
:105AC0001E204040404040603E00000000000000BA
:105AD0007C464243434342467800000000000000F9
