:020000040800F2
:10000000B0040020C5000008EB000008ED00000867
:1000100000000000000000000000000000000000E0
:10002000000000000000000000000000EF000008D9
:100030000000000000000000F1000008F3000008CC
:10004000F5000008F5000008F5000008F5000008BC
:10005000F5000008F5000008F5000008F5000008AC
:1000600000000000F5000008F5000008F500000899
:10007000F5000008F5000008F5000008F50000088C
:10008000F50000080000000000000000F500000876
:1000900000000000F5000008F5000008F500000869
:1000A00000000000F500000800000000FD07000847
:1000B0000348854600F048F800480047250F00082F
:1000C000B00400200C4880F308880C480168090E31
:1000D0000B4A914205D10B480B4901600B480C4972
:1000E00001600C4880470C480047FEE7FEE7FEE74A
:1000F000FEE7FEE7FEE70000B00400200400000079
:100100001F00000018100240010000000000014024
:100110000000000049070008B100000830B50B4698
:10012000014600202022012409E00D46D5409D42D1
:1001300005D31D469540491B254695404019154657
:10014000521E002DF1DC30BD064C0125064E05E0A7
:10015000E36807CC2B430C3C98471034B442F7D3E8
:10016000FFF7AAFFD8140008F81400081CB50121F5
:10017000480400F0DFF8012208210920C00600F041
:100180007CF801220921C80600F077F801220A2133
:100190000920C00600F071F80320400200900221FF
:1001A00068460171002181710121C17103214171F2
:1001B00069460920C00600F018F8FF2001300090C1
:1001C00001216846017100218171032141710021E3
:1001D000C17169460920C00600F007F8FF2101310E
:1001E0000920C00600F06BF81CBDF0B50A460021DE
:1001F0000023002400BF3DE001258D402B461568FB
:100200001D402C469C4234D11579012D02D0157920
:10021000022D16D185684F000326BE40B543856088
:1002200055794E00B540866835438560858801263E
:100230008E40B5438580858896798E40B6B2354329
:10024000858005684F000326BE40B54305601579DB
:100250004E00B540066835430560C5684F0003266B
:10026000BE40B543C560D5794E00B540C66835433C
:10027000C560491C1029BFD3F0BDF0B50023002490
:100280004D07EE0E1546B5402B46CD10AE00054687
:100290002035AD594E07F70E0F26BE40B543CE10A0
:1002A000B60007462037BD51CD10AE003D46AD59D2
:1002B0001D432C46CD10AD003E467451F0BD018566
:1002C0007047000000218278002A27D0184A0323B3
:1002D0001B02D21803789B109B00D158027892071A
:1002E000D30EFF229A400B46934319464278920759
:1002F000120E03789B07DB0E9A4011430C4A03232E
:100300001B02D21803789B109B00D1500278D306B1
:10031000DB0E01229A40064B1A6007E00278D306F2
:10032000DB0E01229A40024B80331A6070470000B6
:1003300000E100E0002905D0054A52690243044B60
:100340005A6104E0024A52698243014B5A61704784
:1003500000100240002905D0054A92690243044B6F
:100360009A6104E0024A92698243014B9A617047A4
:1003700000100240FEB50446002500260020029031
:10038000019000900027864840680C2108400546EF
:10039000002D06D0042D07D0082D08D00C2D2CD10F
:1003A00028E0804820602BE07E48206028E07C48E0
:1003B00040680F21890408400646794840680321B7
:1003C000C90308400290B00C861C0298002803D193
:1003D0007548374647430BE07148C06A0007000F75
:1003E000401C01906F480199FFF798FE7043074643
:1003F000276005E06D48206002E06A48206000BF89
:1004000000BF67484068F021084005462D0968484C
:10041000405D009020680099C84060606048406876
:1004200007210902084005462D0A6148405D0090F9
:1004300061680098C140A1605948006BFF210131FB
:100440000840884202D05B48E0600DE054484068B4
:10045000012189030840884203D0A0684008E06079
:1004600002E0A0688008E0604D48006B4021084031
:10047000402802D05048206102E00120C0032061E2
:100480004748006B10210840102802D045486061A1
:1004900001E0206860614248006B8007800F0028FF
:1004A00002D1A068A06119E03D48006B8007800F71
:1004B000012802D12068A06110E03948006B800754
:1004C000800F022802D18003A06107E03448006B4E
:1004D0008007800F032801D13248A0613048006BAB
:1004E000032109040840002802D1A068E06120E04F
:1004F0002B48006B032109040840012109048842AC
:1005000002D12068E06114E02548006B0321090452
:10051000084001214904884202D18010E06108E0CE
:100520001F48006B032109040840884201D11D487F
:10053000E0611B48006B032189040840002802D1B8
:10054000A068206220E01648006B0321890408405F
:1005500001218904884202D12068206214E01048F9
:10056000006B0321890408400121C904884202D19B
:100570000011206208E00A48006B0321890408404A
:10058000884201D1074820620548006B802108405D
:10059000802802D00548606200E06762FEBD00006E
:1005A0000010024000127A0000093D00006CDC02DD
:1005B00018000020809FD50012800000074A526872
:1005C0007B23DB039A43054B5A601A465268034665
:1005D0000B431A43014B5A60704700000010024061
:1005E00001460020044A50688008800002460A4301
:1005F0001046014A50607047001002401CB50020B0
:10060000019000904548006801210904884343494E
:10061000086000BF4148006801214904084000907B
:100620000198401C01900098002804D1052109037D
:1006300001988842EED139480068012149040840F8
:10064000002802D00120009001E0002000900098D6
:1006500001283AD1112032490860304840682F49BA
:100660004860084640684860084640687F21C903E2
:1006700088432A4948600846406811210904084314
:1006800026494860084600680121090608432349B5
:10069000086000BF21480068012149060840002881
:1006A000F8D01E484068800880001C494860084611
:1006B0004068022108431949486000BF1748406854
:1006C0000C2108400828F9D127E0112014490860BE
:1006D0001248406811494860084640684860052152
:1006E000C9040020FFF76AFF0C48006801210906D1
:1006F00008430A49086000BF08480068012149060C
:1007000008400028F8D00220FFF76AFF00BF034826
:1007100040680C2108400828F9D11CBD0010024097
:1007200000200240042806D1064909690422114329
:10073000044A116105E00349096904229143014A11
:100740001161704700E000E010B51B48006801210E
:100750000843194908600846406818490840164986
:100760004860084600681649084013490860084672
:1007700000680121890488430F49086008464068E1
:100780003F21090488430C4948600846C06A0009B3
:100790000001C8620846006BFF21543188430649B6
:1007A00008630846406B40084000486300208860AA
:1007B000FFF724FF10BD0000001002400CB8FF0836
:1007C000FFFFF6FE00BF0548C06920210840002851
:1007D000F9D0024820308088C0B27047003801400C
:1007E00000BF0549C969802211400029F9D002499A
:1007F00020310881704700000038014010B50849D9
:10080000084800F04DF8002805D0FFF7DBFF04464C
:10081000204600F04BFD2021024800F005F810BDF5
:10082000050105000038014001627047002904D02D
:10083000026801231A43026003E002685208520072
:100840000260704700B587B001218803FFF782FD81
:1008500010480190002006900C2005900020049084
:100860000390029001A90C4800F062F801210A48A7
:10087000FFF7DCFF1B216846017001218170417088
:10088000FFF720FD01220549034800F030F807B0CA
:1008900000BD0000A025260000380140050105002C
:1008A00070B502460B4600240021002500201E04DE
:1008B000350ED9B201268E403146012D02D116687F
:1008C000314006E0022D02D15668314001E09668C1
:1008D00031401C0C0126A6403446D669344000291C
:1008E00003D0002C01D0012000E0002070BDF8B53D
:1008F00003460024002600960025002018460E041A
:10090000340ECEB200960127009EB7403D46022C21
:1009100001D1001D02E0032C00D10830002A03D0D1
:1009200006682E43066002E00668AE430660F8BD26
:10093000F0B58BB004460D46002700200A90002633
:1009400020684008400020606668032109033046A3
:1009500088430646A8680643666026682D48064018
:10096000E968686808432969084306432660A66861
:100970000321090230468843064668690643A6609B
:100980006846FFF7F7FC2448844202D106980A9093
:100990000DE02248844202D107980A9007E02048DF
:1009A000844202D108980A9001E002980A902068D7
:1009B0000121C903084000280CD029680A9A500078
:1009C000FFF7ACFB074629680A9A5000FFF7A6FB21
:1009D0000E4609E029680A98FFF7A0FB0746296838
:1009E0000A98FFF79BFB0E4628684008B04200D8E3
:1009F0007F1C20680121C9030840002806D0380761
:100A0000460F38460749084030430746A7810BB0D8
:100A1000F0BD0000F3E9FFFF003801400044004052
:100A200000480040F0FF00000FB410B504A9074BC8
:100A300002AA039800F02AF8044602A9002000F058
:100A4000CDF8204610BC08BC04B01847DD0B0008E8
:100A500030B47446641E2578641CAB4204D3635DD5
:100A60005B00E31830BC18471D46F8E702E008C8F1
:100A7000121F08C1002AFAD170477047002001E018
:100A800001C1121F002AFBD170470000FFB58DB0D5
:100A90000446002506E025280AD0109A0F999047B1
:100AA000641C6D1C20780028F5D1284611B0F0BDDB
:100AB00000270121484A009700E00743641C23787F
:100AC0000846203B98401042F7D120782E2817D1B5
:100AD000042007436078641C2A280CD10E98641CFB
:100AE00002C800910E900BE000990A225143303960
:100AF0004018641C00902078014630390929F3D948
:100B000020780028D1D0642808D0692806D075281C
:100B10001ED0109A0F9990476D1C5BE00A200E9929
:100B2000019001C90E91002802DA40422D2102E015
:100B3000390504D52B216A461172012103E0F9071A
:100B400004D02021F7E70BAE0B910DE00021FAE76E
:100B50000A200E99019001C90E91F7E70199FFF75C
:100B6000DDFA3031761E31700028F7D103A8801BE2
:100B700020300190780701D5009801E00120009015
:100B80000199884201DD401A00E000200027009012
:100B900006E002A8109AC05D0F9990476D1C7F1C5B
:100BA0000B988742F5DB04E0109A30200F999047AC
:100BB0006D1C0099481E00900029F5DC05E0307896
:100BC000109A761C0F9990476D1C0199481E019050
:100BD0000029F4DC641C65E7092801000A68531C3D
:100BE0000B601070704770470146002008780002C3
:100BF0004A78104300028A7810430002CA781043F2
:100C000070470000F0B585B004463149E01C085C2F
:100C1000029002980300FFF71BFF0F090C0F121D33
:100C20002125564756565656564A560000F05EF94C
:100C30004AE000F06BFA47E000F050F944E0244944
:100C4000A01D085C2349087000220321084600F01B
:100C500007FC39E001202049087035E001201F49D8
:100C6000087031E01A49201D085C07020A46611D20
:100C7000515C0F43002514E0A01D4019801C14494D
:100C8000085C0602A01D4019C01C085C801986B2D1
:100C90000919891D481900F023F80390301D281800
:100CA00085B2BD42E8DB0FE0FFF79DFF0CE008498D
:100CB000A01D085C0190E01D085C0090009901985F
:100CC00000F03CFB00E000BF00BF05B0F0BD00003D
:100CD0003C000020370000203500002036000020B6
:100CE000FEB5044626786778A0780502E0784019BA
:100CF00085B2304600F0DAF80190019840000749CB
:100D000040184078B84201D00020FEBD2A46211D7F
:100D1000304600F02BF800900098F6E7C014000869
:100D200010B50420C043FFF7FDFC044904480068E7
:100D3000FFF7F4F90349086010BD000000127A00C3
:100D40000400002000000020F8B504460D462946A6
:100D5000204600F09DF907463946072000F0F0F8DC
:100D60000646012E00D1F8BD0020FCE7F8B5054687
:100D70000E461746082D1ED006DC012D09D0032D86
:100D80000DD0072D29D110E0132D1AD0142D24D108
:100D90001DE03946304600F048F804461EE039466A
:100DA000304600F030F8044618E039463046FFF788
:100DB000CBFF044612E03946304600F056F80446B0
:100DC0000CE03946304600F00CF8044606E039469F
:100DD000304600F038F8044600E000BF00BF20466F
:100DE000F8BDF8B504460D462946204600F050F9F6
:100DF00007463946132000F0A3F80646012E00D11D
:100E0000F8BD0020FCE7F8B504460D46294620460B
:100E100000F041F907463946032000F0FDF8064688
:100E2000012E00D1F8BD0020FCE770B504460D4648
:100E30002A462146012000F0B7F80646012E00D1CF
:100E400070BD0020FCE7F8B504460D462946204653
:100E500000F01EF907463946142000F071F80646E6
:100E6000012E00D1F8BD0020FCE7F8B504460D4680
:100E70002946204600F00CF907463946082000F0C4
:100E80005FF80646012E00D1F8BD0020FCE730B522
:100E900002460020002305E01578521C2C18E0B211
:100EA0005C1CA3B28B42F7DB30BD000070B5054679
:100EB00000F012F80646002407E060000549085CCF
:100EC000A84200D103E0601CC4B2B442F5DB00BF0D
:100ED000204670BDC01400080B20704710B50024D8
:100EE00022460321022000F0BBFA10BD10B50024F9
:100EF0000B480078002808D10021204600F0B0F906
:100F0000C4B201200649087004E00121204600F027
:100F1000A7F9C4B222460321002000F0A1FA10BDB7
:100F200038000020FFF722F9FFF78CFCFFF7F8FEEE
:100F3000FFF70AFC00F0ECF901E000F005FAFCE72D
:100F400070B504460D46002616480078012800D1E9
:100F500070BD2146304600F083F906460121304637
:100F600000F07EF906460021304600F079F9064689
:100F70000121304600F074F90646002D05D100210C
:100F8000304600F06DF9064604E00121304600F0DD
:100F900067F9064632460321072000F061FA012076
:100FA000D6E7000034000020F7B5064614460027B7
:100FB00018480078012800D1FEBD3146384600F0BF
:100FC0004FF907460021384600F04AF90746254602
:100FD000E017000E40190004010E384600F040F9F9
:100FE0000746E017000E401900120002201AC1B295
:100FF000384600F035F9074622463846019900F098
:101000001DF907463A460321072000F029FA01207E
:10101000D2E700003400002070B505460C460026DB
:101020001A480078012800D170BD2946304600F0EA
:1010300017F906460221304600F012F90646002153
:10104000304600F00DF906460421304600F008F95C
:101050000646210E304600F003F906462002010E36
:10106000304600F0FDF806462004010E304600F040
:10107000F7F80646E1B2304600F0F2F8064632468E
:101080000321072000F0ECF90120CDE73400002017
:1010900002461078704710B503460C461846FFF715
:1010A000A3FD10BDF0B505460E4613462A4634464C
:1010B000002D01D0002E01D10020F0BDA24202D9A6
:1010C000E018904208D2002103E0605C5054481CB4
:1010D00081B29942F9DB09E0194605E0481E205C1F
:1010E0004F1ED055481E81B20029F7DC2846E4E7A0
:1010F00001460022002900D17047002200E0521C66
:101100000B78491C002BFAD11046F5E73EB50024B8
:10111000002000900190029034A0FFF7E9FF85B213
:101120002A4632A1204600F089F8C4B231A0FFF768
:10113000DFFF85B22A462FA1204600F07FF8C4B217
:1011400031A0FFF7D5FF85B22A462FA1204600F037
:1011500075F8C4B22EA0FFF7CBFF85B22A462CA1AA
:10116000204600F06BF8C4B22BA0FFF7C1FF85B298
:101170002A4629A1204600F061F8C4B228A0FFF752
:10118000B7FF85B22A4626A1204600F057F8C4B220
:101190000A2224A16846FFF747FC6846FFF7A8FF2C
:1011A00085B22A466946204600F048F8C4B20022BB
:1011B0001FA16846FFF738FC6846FFF799FF85B224
:1011C0002A466946204600F039F8C4B21AA0FFF753
:1011D0008FFF85B22A4618A1204600F02FF8C4B22E
:1011E00022460321012000F03BF93EBD7B22702204
:1011F0003A220000676B74716E706369796F666E76
:101200006C38736300000000222C2276223A220000
:10121000312E302E30000000222C226D223A0000A8
:10122000320000002C226D74223A25640000000078
:101230002C226E223A2564007D000000F8B5044699
:101240000E461546054807192A4631463846FFF727
:1012500029FF601984B22046F8BD00007800002004
:10126000024B1A181170431C98B270477800002086
:101270000B4909680B4A126891420FD008490A6865
:1012800009498A4202D31739054A1160044909689D
:10129000087803490968491C014A11607047000039
:1012A000300000202C000020720000201249096844
:1012B000124A1268891A01291CD0104909680E4A7D
:1012C0001268914206D90D4909680B4A1268891AB9
:1012D00017290FD209490A6809498A4202D31739E6
:1012E000064A116005490968087004490968491CE3
:1012F000024A116070470000300000202C000020DE
:101300007200002010B504462046FFF769FA10BDB0
:10131000054806490860064908600020054908702C
:10132000FF200549087070475B0000202C0000205A
:10133000300000203400002037000020002802D1B7
:10134000002900D000BF704770B50024002509E0D7
:10135000FFF78EFF36490A880988491C344B1980EB
:1013600034498854324800881F2803D200F09AF884
:101370000028EDDC2E480088072800DA70BD3FE029
:101380002C48005D552802D0601C84B238E0294901
:10139000601C085CAA2802D0601C84B230E0254999
:1013A000A01C085C002802D0A01C84B228E02149BF
:1013B000201D085C0502601D085CC01D401985B237
:1013C000262D02D9E01C84B21AE019480088001BBF
:1013D000A84200DA19E06A1E91B2164A1019FFF706
:1013E00056FD6119491E134A515C884202D0E01C27
:1013F00084B205E02046FFF705FC601984B200BF07
:101400000B480088001B0728BADA00BF084800888C
:10141000001B0749088008460088002806DD0548AB
:101420000119034802880348FFF73CFE00BFA5E707
:10143000280000203C00002070B504460D46002C1A
:1014400001D0002D00D170BD03E02078FFF75AFFD6
:10145000641C2846691E8DB20028F6D100BFF2E751
:10146000F8B505460E461446002755200C4908706D
:10147000AA20487008468670C570201208714C7109
:10148000E01D84B2601E81B20548FFF700FD0746EB
:10149000601E03490F5421460148FFF7CDFFF8BDF8
:1014A000720000200448006804490968884201D09D
:1014B000012070470020FCE72C00002030000020B5
:1014C00001000302070108010B020C010F021002C8
:1014D0001102130114010000F8140008000000209C
:1014E0003C0000006C0A0008341500083C00002095
:1014F000740400007C0A000800000000006CDC029C
:1015000000000000000000000102030406070809B3
:101510000000000001020304010203040607080999
:1015200000000000000000000000000000000000BB
:0415300000000000B7
:04000005080000B13E
:00000001FF
